{
  "abi": [
    {
      "inputs": [
        {
          "internalType": "bytes32",
          "name": "role",
          "type": "bytes32"
        },
        {
          "internalType": "address",
          "name": "account",
          "type": "address"
        }
      ],
      "name": "AccessControl__RoleMissing",
      "type": "error"
    },
    {
      "inputs": [],
      "name": "AccessControl__Unauthorized",
      "type": "error"
    },
    {
      "inputs": [],
      "name": "ERC1967UpgradeUpgradeable__DelegateCallToNonContract",
      "type": "error"
    },
    {
      "inputs": [],
      "name": "ERC1967UpgradeUpgradeable__ExecutionFailed",
      "type": "error"
    },
    {
      "inputs": [],
      "name": "ERC1967UpgradeUpgradeable__ImplementationIsNotContract",
      "type": "error"
    },
    {
      "inputs": [],
      "name": "ERC1967UpgradeUpgradeable__ImplementationIsNotUUPS",
      "type": "error"
    },
    {
      "inputs": [],
      "name": "ERC1967UpgradeUpgradeable__UnsupportedProxiableUUID",
      "type": "error"
    },
    {
      "inputs": [],
      "name": "FundForwarder__ForwardFailed",
      "type": "error"
    },
    {
      "inputs": [],
      "name": "Initializable__AlreadyInitialized",
      "type": "error"
    },
    {
      "inputs": [],
      "name": "Initializable__NotInitializing",
      "type": "error"
    },
    {
      "inputs": [],
      "name": "Pausable__NotPaused",
      "type": "error"
    },
    {
      "inputs": [],
      "name": "Pausable__Paused",
      "type": "error"
    },
    {
      "inputs": [],
      "name": "ProxyChecker__EOAUnallowed",
      "type": "error"
    },
    {
      "inputs": [],
      "name": "UUPSUpgradeable__OnlyActiveProxy",
      "type": "error"
    },
    {
      "inputs": [],
      "name": "UUPSUpgradeable__OnlyCall",
      "type": "error"
    },
    {
      "inputs": [],
      "name": "UUPSUpgradeable__OnlyDelegateCall",
      "type": "error"
    },
    {
      "anonymous": false,
      "inputs": [
        {
          "indexed": false,
          "internalType": "address",
          "name": "previousAdmin",
          "type": "address"
        },
        {
          "indexed": false,
          "internalType": "address",
          "name": "newAdmin",
          "type": "address"
        }
      ],
      "name": "AdminChanged",
      "type": "event"
    },
    {
      "anonymous": false,
      "inputs": [
        {
          "indexed": true,
          "internalType": "address",
          "name": "beacon",
          "type": "address"
        }
      ],
      "name": "BeaconUpgraded",
      "type": "event"
    },
    {
      "anonymous": false,
      "inputs": [
        {
          "indexed": true,
          "internalType": "address",
          "name": "account",
          "type": "address"
        }
      ],
      "name": "Blacklisted",
      "type": "event"
    },
    {
      "anonymous": false,
      "inputs": [
        {
          "indexed": true,
          "internalType": "address",
          "name": "from",
          "type": "address"
        },
        {
          "indexed": true,
          "internalType": "uint256",
          "name": "amount",
          "type": "uint256"
        }
      ],
      "name": "Forwarded",
      "type": "event"
    },
    {
      "anonymous": false,
      "inputs": [
        {
          "indexed": false,
          "internalType": "uint256",
          "name": "version",
          "type": "uint256"
        }
      ],
      "name": "Initialized",
      "type": "event"
    },
    {
      "anonymous": false,
      "inputs": [
        {
          "indexed": false,
          "internalType": "address",
          "name": "account",
          "type": "address"
        }
      ],
      "name": "Paused",
      "type": "event"
    },
    {
      "anonymous": false,
      "inputs": [
        {
          "indexed": true,
          "internalType": "address",
          "name": "proxy",
          "type": "address"
        }
      ],
      "name": "ProxyAccessGranted",
      "type": "event"
    },
    {
      "anonymous": false,
      "inputs": [
        {
          "indexed": true,
          "internalType": "bytes32",
          "name": "role",
          "type": "bytes32"
        },
        {
          "indexed": true,
          "internalType": "bytes32",
          "name": "previousAdminRole",
          "type": "bytes32"
        },
        {
          "indexed": true,
          "internalType": "bytes32",
          "name": "newAdminRole",
          "type": "bytes32"
        }
      ],
      "name": "RoleAdminChanged",
      "type": "event"
    },
    {
      "anonymous": false,
      "inputs": [
        {
          "indexed": true,
          "internalType": "bytes32",
          "name": "role",
          "type": "bytes32"
        },
        {
          "indexed": true,
          "internalType": "address",
          "name": "account",
          "type": "address"
        },
        {
          "indexed": true,
          "internalType": "address",
          "name": "sender",
          "type": "address"
        }
      ],
      "name": "RoleGranted",
      "type": "event"
    },
    {
      "anonymous": false,
      "inputs": [
        {
          "indexed": true,
          "internalType": "bytes32",
          "name": "role",
          "type": "bytes32"
        },
        {
          "indexed": true,
          "internalType": "address",
          "name": "account",
          "type": "address"
        },
        {
          "indexed": true,
          "internalType": "address",
          "name": "sender",
          "type": "address"
        }
      ],
      "name": "RoleRevoked",
      "type": "event"
    },
    {
      "anonymous": false,
      "inputs": [
        {
          "indexed": false,
          "internalType": "address",
          "name": "account",
          "type": "address"
        }
      ],
      "name": "Unpaused",
      "type": "event"
    },
    {
      "anonymous": false,
      "inputs": [
        {
          "indexed": true,
          "internalType": "address",
          "name": "implementation",
          "type": "address"
        }
      ],
      "name": "Upgraded",
      "type": "event"
    },
    {
      "anonymous": false,
      "inputs": [
        {
          "indexed": true,
          "internalType": "address",
          "name": "account",
          "type": "address"
        }
      ],
      "name": "Whitelisted",
      "type": "event"
    },
    {
      "inputs": [],
      "name": "DEFAULT_ADMIN_ROLE",
      "outputs": [
        {
          "internalType": "bytes32",
          "name": "",
          "type": "bytes32"
        }
      ],
      "stateMutability": "view",
      "type": "function"
    },
    {
      "inputs": [],
      "name": "VERSION",
      "outputs": [
        {
          "internalType": "bytes32",
          "name": "",
          "type": "bytes32"
        }
      ],
      "stateMutability": "view",
      "type": "function"
    },
    {
      "inputs": [
        {
          "internalType": "bytes32",
          "name": "role_",
          "type": "bytes32"
        }
      ],
      "name": "getAllRoleMembers",
      "outputs": [
        {
          "internalType": "address[]",
          "name": "",
          "type": "address[]"
        }
      ],
      "stateMutability": "view",
      "type": "function"
    },
    {
      "inputs": [
        {
          "internalType": "bytes32",
          "name": "role",
          "type": "bytes32"
        }
      ],
      "name": "getRoleAdmin",
      "outputs": [
        {
          "internalType": "bytes32",
          "name": "",
          "type": "bytes32"
        }
      ],
      "stateMutability": "view",
      "type": "function"
    },
    {
      "inputs": [
        {
          "internalType": "bytes32",
          "name": "role",
          "type": "bytes32"
        },
        {
          "internalType": "uint256",
          "name": "index",
          "type": "uint256"
        }
      ],
      "name": "getRoleMember",
      "outputs": [
        {
          "internalType": "address",
          "name": "",
          "type": "address"
        }
      ],
      "stateMutability": "view",
      "type": "function"
    },
    {
      "inputs": [
        {
          "internalType": "bytes32",
          "name": "role",
          "type": "bytes32"
        }
      ],
      "name": "getRoleMemberCount",
      "outputs": [
        {
          "internalType": "uint256",
          "name": "",
          "type": "uint256"
        }
      ],
      "stateMutability": "view",
      "type": "function"
    },
    {
      "inputs": [
        {
          "internalType": "bytes32",
          "name": "role",
          "type": "bytes32"
        },
        {
          "internalType": "address",
          "name": "account",
          "type": "address"
        }
      ],
      "name": "grantRole",
      "outputs": [],
      "stateMutability": "nonpayable",
      "type": "function"
    },
    {
      "inputs": [
        {
          "internalType": "bytes32",
          "name": "role",
          "type": "bytes32"
        },
        {
          "internalType": "address",
          "name": "account",
          "type": "address"
        }
      ],
      "name": "hasRole",
      "outputs": [
        {
          "internalType": "bool",
          "name": "",
          "type": "bool"
        }
      ],
      "stateMutability": "view",
      "type": "function"
    },
    {
      "inputs": [],
      "name": "initialize",
      "outputs": [],
      "stateMutability": "nonpayable",
      "type": "function"
    },
    {
      "inputs": [
        {
          "internalType": "address",
          "name": "account_",
          "type": "address"
        }
      ],
      "name": "isBlacklisted",
      "outputs": [
        {
          "internalType": "bool",
          "name": "",
          "type": "bool"
        }
      ],
      "stateMutability": "view",
      "type": "function"
    },
    {
      "inputs": [],
      "name": "pause",
      "outputs": [],
      "stateMutability": "nonpayable",
      "type": "function"
    },
    {
      "inputs": [],
      "name": "paused",
      "outputs": [
        {
          "internalType": "bool",
          "name": "",
          "type": "bool"
        }
      ],
      "stateMutability": "view",
      "type": "function"
    },
    {
      "inputs": [],
      "name": "proxiableUUID",
      "outputs": [
        {
          "internalType": "bytes32",
          "name": "",
          "type": "bytes32"
        }
      ],
      "stateMutability": "view",
      "type": "function"
    },
    {
      "inputs": [
        {
          "internalType": "bytes32",
          "name": "role",
          "type": "bytes32"
        },
        {
          "internalType": "address",
          "name": "account",
          "type": "address"
        }
      ],
      "name": "renounceRole",
      "outputs": [],
      "stateMutability": "nonpayable",
      "type": "function"
    },
    {
      "inputs": [
        {
          "internalType": "bytes32",
          "name": "role",
          "type": "bytes32"
        }
      ],
      "name": "requestAccess",
      "outputs": [],
      "stateMutability": "nonpayable",
      "type": "function"
    },
    {
      "inputs": [
        {
          "internalType": "bytes32",
          "name": "role",
          "type": "bytes32"
        },
        {
          "internalType": "address",
          "name": "account",
          "type": "address"
        }
      ],
      "name": "revokeRole",
      "outputs": [],
      "stateMutability": "nonpayable",
      "type": "function"
    },
    {
      "inputs": [
        {
          "internalType": "bytes32",
          "name": "role",
          "type": "bytes32"
        },
        {
          "internalType": "bytes32",
          "name": "adminRole",
          "type": "bytes32"
        }
      ],
      "name": "setRoleAdmin",
      "outputs": [],
      "stateMutability": "nonpayable",
      "type": "function"
    },
    {
      "inputs": [
        {
          "internalType": "address",
          "name": "account_",
          "type": "address"
        },
        {
          "internalType": "bool",
          "name": "status_",
          "type": "bool"
        }
      ],
      "name": "setUserStatus",
      "outputs": [],
      "stateMutability": "nonpayable",
      "type": "function"
    },
    {
      "inputs": [
        {
          "internalType": "bytes4",
          "name": "interfaceId",
          "type": "bytes4"
        }
      ],
      "name": "supportsInterface",
      "outputs": [
        {
          "internalType": "bool",
          "name": "",
          "type": "bool"
        }
      ],
      "stateMutability": "view",
      "type": "function"
    },
    {
      "inputs": [],
      "name": "unpause",
      "outputs": [],
      "stateMutability": "nonpayable",
      "type": "function"
    },
    {
      "inputs": [
        {
          "internalType": "address",
          "name": "newImplementation",
          "type": "address"
        }
      ],
      "name": "upgradeTo",
      "outputs": [],
      "stateMutability": "nonpayable",
      "type": "function"
    },
    {
      "inputs": [
        {
          "internalType": "address",
          "name": "newImplementation",
          "type": "address"
        },
        {
          "internalType": "bytes",
          "name": "data",
          "type": "bytes"
        }
      ],
      "name": "upgradeToAndCall",
      "outputs": [],
      "stateMutability": "payable",
      "type": "function"
    },
    {
      "inputs": [],
      "name": "vault",
      "outputs": [
        {
          "internalType": "address",
          "name": "",
          "type": "address"
        }
      ],
      "stateMutability": "view",
      "type": "function"
    },
    {
      "stateMutability": "payable",
      "type": "receive"
    }
  ],
  "bytecode": {
    "object": "0x60a06040523060805234801561001457600080fd5b50608051611d2061004c6000396000818161074b015281816107a5015281816108d6015281816109300152610a1f0152611d206000f3fe6080604052600436106101845760003560e01c80638129fc1c116100d6578063a6fa0cb41161007f578063fbfa77cf11610059578063fbfa77cf146104ee578063fe575a871461051c578063ffa1ad741461053c57600080fd5b8063a6fa0cb414610481578063ca15c873146104ae578063d547741f146104ce57600080fd5b80639010d07c116100b05780639010d07c1461040757806391d148541461044c578063a217fddf1461046c57600080fd5b80638129fc1c146103bd578063841fb503146103d25780638456cb59146103f257600080fd5b806336568abe116101385780634f1ef286116101125780634f1ef2861461038057806352d1902d146103935780635c975abb146103a857600080fd5b806336568abe1461032b5780633659cfe61461034b5780633f4ba83a1461036b57600080fd5b806321eceff71161016957806321eceff7146102af578063248a9ca3146102cf5780632f2ff15d1461030b57600080fd5b806301ffc9a7146102585780631e4e00911461028d57600080fd5b36610253576101f65460405160009173ffffffffffffffffffffffffffffffffffffffff169034908381818185875af1925050503d80600081146101e4576040519150601f19603f3d011682016040523d82523d6000602084013e6101e9565b606091505b5050905080610224576040517f68ef1d7400000000000000000000000000000000000000000000000000000000815260040160405180910390fd5b604051349033907f6f1deddfc28100c291fae8f1064e4a91e844f0841993bb8fba9a913c3b801d8090600090a3005b600080fd5b34801561026457600080fd5b50610278610273366004611a0a565b610570565b60405190151581526020015b60405180910390f35b34801561029957600080fd5b506102ad6102a8366004611a4c565b6105cc565b005b3480156102bb57600080fd5b506102ad6102ca366004611a97565b6105e6565b3480156102db57600080fd5b506102fd6102ea366004611ad3565b6000908152610160602052604090205490565b604051908152602001610284565b34801561031757600080fd5b506102ad610326366004611aec565b6106b4565b34801561033757600080fd5b506102ad610346366004611aec565b6106d7565b34801561035757600080fd5b506102ad610366366004611b18565b610734565b34801561037757600080fd5b506102ad61088d565b6102ad61038e366004611b62565b6108bf565b34801561039f57600080fd5b506102fd610a05565b3480156103b457600080fd5b50610278610a9b565b3480156103c957600080fd5b506102ad610aae565b3480156103de57600080fd5b506102ad6103ed366004611ad3565b610c6c565b3480156103fe57600080fd5b506102ad610d2a565b34801561041357600080fd5b50610427610422366004611a4c565b610d5c565b60405173ffffffffffffffffffffffffffffffffffffffff9091168152602001610284565b34801561045857600080fd5b50610278610467366004611aec565b610d7c565b34801561047857600080fd5b506102fd600081565b34801561048d57600080fd5b506104a161049c366004611ad3565b610d9e565b6040516102849190611c42565b3480156104ba57600080fd5b506102fd6104c9366004611ad3565b610db9565b3480156104da57600080fd5b506102ad6104e9366004611aec565b610dd1565b3480156104fa57600080fd5b506101f6546104279073ffffffffffffffffffffffffffffffffffffffff1681565b34801561052857600080fd5b50610278610537366004611b18565b610df4565b34801561054857600080fd5b506102fd7f095dd5e04e0f3f5bce98e4ee904d9f7209827187c4201f036596b2f7fdd602e781565b60007fffffffff0000000000000000000000000000000000000000000000000000000082167ffcff14bb0000000000000000000000000000000000000000000000000000000014806105c657506105c682610e2c565b92915050565b60006105d781610ec3565b6105e18383610ecd565b505050565b6105ee610f1d565b7f65d7a28e3265b37a6474929f336521b332c1681b933f6cb9f3376673440d862a61061881610ec3565b6106228383610f5d565b811561066e5760405173ffffffffffffffffffffffffffffffffffffffff8416907fffa4e6181777692565cf28528fc88fd1516ea86b56da075235fa575af6a4b85590600090a2505050565b60405173ffffffffffffffffffffffffffffffffffffffff8416907faab7954e9d246b167ef88aeddad35209ca2489d95a8aeb59e288d9b19fae5a5490600090a2505050565b600082815261016060205260409020546106cd81610ec3565b6105e18383610f89565b73ffffffffffffffffffffffffffffffffffffffff81163314610726576040517f7f62d52100000000000000000000000000000000000000000000000000000000815260040160405180910390fd5b6107308282610fac565b5050565b73ffffffffffffffffffffffffffffffffffffffff7f00000000000000000000000000000000000000000000000000000000000000001630036107a3576040517ff96c3be000000000000000000000000000000000000000000000000000000000815260040160405180910390fd5b7f000000000000000000000000000000000000000000000000000000000000000073ffffffffffffffffffffffffffffffffffffffff166108187f360894a13ba1a3210667c828492db98dca3e2076cc3735a920a3ca505d382bbc5473ffffffffffffffffffffffffffffffffffffffff1690565b73ffffffffffffffffffffffffffffffffffffffff1614610865576040517f7860576200000000000000000000000000000000000000000000000000000000815260040160405180910390fd5b61086e81610fcf565b6040805160008082526020820190925261088a91839190610ff9565b50565b7f65d7a28e3265b37a6474929f336521b332c1681b933f6cb9f3376673440d862a6108b781610ec3565b61088a61114c565b73ffffffffffffffffffffffffffffffffffffffff7f000000000000000000000000000000000000000000000000000000000000000016300361092e576040517ff96c3be000000000000000000000000000000000000000000000000000000000815260040160405180910390fd5b7f000000000000000000000000000000000000000000000000000000000000000073ffffffffffffffffffffffffffffffffffffffff166109a37f360894a13ba1a3210667c828492db98dca3e2076cc3735a920a3ca505d382bbc5473ffffffffffffffffffffffffffffffffffffffff1690565b73ffffffffffffffffffffffffffffffffffffffff16146109f0576040517f7860576200000000000000000000000000000000000000000000000000000000815260040160405180910390fd5b6109f982610fcf565b61073082826001610ff9565b60003073ffffffffffffffffffffffffffffffffffffffff7f00000000000000000000000000000000000000000000000000000000000000001614610a76576040517ff2e149be00000000000000000000000000000000000000000000000000000000815260040160405180910390fd5b507f360894a13ba1a3210667c828492db98dca3e2076cc3735a920a3ca505d382bbc90565b6000610aa960985460021490565b905090565b6001546000546002909114801591908290610ac7575080155b80610adc5750806001148015610adc5750303b155b610b12576040517f2e8adaaa00000000000000000000000000000000000000000000000000000000815260040160405180910390fd5b60016000558115610b235760026001555b610b2b6111a6565b33610b37600082610f89565b610b617f65d7a28e3265b37a6474929f336521b332c1681b933f6cb9f3376673440d862a82610f89565b610b8b7f97667070c54ef182b0f5858b034beac1b6f3089aa2d3188bb1e8929f4fa9b92982610f89565b610bb57f189ab7a9244df0848122154315af71fe140f3db0fe014031783b0946b8c9d2e382610f89565b610bdf7f3496e2e73c4d42b75d702e60d9e48102720b8691234415963a5a857b86425d0782610f89565b610c297f3496e2e73c4d42b75d702e60d9e48102720b8691234415963a5a857b86425d077f97667070c54ef182b0f5858b034beac1b6f3089aa2d3188bb1e8929f4fa9b929610ecd565b5081156107305760018080556040519081527fbe9b076dc5b65990cca9dd9d7366682482e7817a6f6bc7f4faf4dc32af497f329060200160405180910390a15050565b610c746111ea565b32610c9f7f97667070c54ef182b0f5858b034beac1b6f3089aa2d3188bb1e8929f4fa9b92982611229565b33610caa818361128c565b610cd47f77d72916e966418e6dc58a19999ae9934bef3f749f1547cde0a86e809f19c89b82610f89565b8215610ce457610ce48382610f89565b60405173ffffffffffffffffffffffffffffffffffffffff8216907f3f763506fa14cf4e277418ce38e2bab16f2e334f42487448695cf0633cd1491790600090a2505050565b7f65d7a28e3265b37a6474929f336521b332c1681b933f6cb9f3376673440d862a610d5481610ec3565b61088a611300565b600082815261019260205260408120610d759083611334565b9392505050565b6000610d758373ffffffffffffffffffffffffffffffffffffffff8416611349565b6000818152610192602052604090206060906105c690611366565b6000818152610192602052604081206105c6906113c4565b60008281526101606020526040902054610dea81610ec3565b6105e18383610fac565b72ffffffffffffffffffffffffffffffffffffff600882901c16600090815260fc6020526040812054600160ff84161b1615156105c6565b60007fffffffff0000000000000000000000000000000000000000000000000000000082167fdb7226d40000000000000000000000000000000000000000000000000000000014806105c657507f01ffc9a7000000000000000000000000000000000000000000000000000000007fffffffff000000000000000000000000000000000000000000000000000000008316146105c6565b61088a8133611229565b60008281526101606020526040902054819060405184907fbd79b86ffe0ab8e8776151514217cd7cacd52c909f66475c3af44e129f0b00ff90600090a46000918252610160602052604090912055565b610f25610a9b565b610f5b576040517f59488a5a00000000000000000000000000000000000000000000000000000000815260040160405180910390fd5b565b610730610f808373ffffffffffffffffffffffffffffffffffffffff1660601b90565b60fc90836113ce565b610f93828261141d565b6000828152610192602052604090206105e1908261148b565b610fb68282611498565b6000828152610192602052604090206105e19082611506565b7f189ab7a9244df0848122154315af71fe140f3db0fe014031783b0946b8c9d2e361073081610ec3565b7f4910fdfa16fed3260ed0e7147f7cc6da11a60208b5b9406d12a635614ffd91435460ff161561102c576105e183611513565b8273ffffffffffffffffffffffffffffffffffffffff166352d1902d6040518163ffffffff1660e01b8152600401602060405180830381865afa9250505080156110b1575060408051601f3d9081017fffffffffffffffffffffffffffffffffffffffffffffffffffffffffffffffe01682019092526110ae91810190611c9c565b60015b6110e7576040517f38622d4300000000000000000000000000000000000000000000000000000000815260040160405180910390fd5b7f360894a13ba1a3210667c828492db98dca3e2076cc3735a920a3ca505d382bbc8114611140576040517f14edfa8000000000000000000000000000000000000000000000000000000000815260040160405180910390fd5b506105e18383836115c7565b611154610f1d565b60016098557f5db9ee0a495bf2e6ff9c91a7834c1ba4fdd244a5e8aa4e537bd38aeae4b073aa335b60405173ffffffffffffffffffffffffffffffffffffffff909116815260200160405180910390a1565b6001546002146111e2576040517f8b4188b300000000000000000000000000000000000000000000000000000000815260040160405180910390fd5b610f5b6115f2565b6111f2610a9b565b15610f5b576040517f059519da00000000000000000000000000000000000000000000000000000000815260040160405180910390fd5b6112338282610d7c565b610730576040517f480b08dc0000000000000000000000000000000000000000000000000000000081526004810183905273ffffffffffffffffffffffffffffffffffffffff8216602482015260440160405180910390fd5b73ffffffffffffffffffffffffffffffffffffffff8181169083161480156112c9575073ffffffffffffffffffffffffffffffffffffffff82163b155b15610730576040517f14b1706900000000000000000000000000000000000000000000000000000000815260040160405180910390fd5b6113086111ea565b60026098557f62e78cea01bee320cd4e420270b5ea74000d11b0c9f74754ebdbfc544b05a2583361117c565b6000806113418484611635565b949350505050565b60008181526101616020526040812054600160ff85161b16610d75565b6060600061137383611656565b90506000815167ffffffffffffffff81111561139157611391611b33565b6040519080825280602002602001820160405280156113ba578160200160208202803683370190505b5091949350505050565b60006105c6825490565b80156113f857600882901c60009081526020849052604090208054600160ff85161b179055505050565b600882901c60009081526020849052604090208054600160ff85161b19169055505050565b61143d8273ffffffffffffffffffffffffffffffffffffffff831661169f565b1561073057604051339073ffffffffffffffffffffffffffffffffffffffff83169084907f2f8788117e7eff1d82e926ec794901d17c78024a50270940304540a733656f0d90600090a45050565b60008161134184826116dc565b6114b88273ffffffffffffffffffffffffffffffffffffffff831661171f565b1561073057604051339073ffffffffffffffffffffffffffffffffffffffff83169084907ff6391f5c32d9c69d2a47ea670b442974b53935d1edc7fd64eb21e047a839171b90600090a45050565b6000816113418482611751565b73ffffffffffffffffffffffffffffffffffffffff81163b611561576040517f2390ec9c00000000000000000000000000000000000000000000000000000000815260040160405180910390fd5b7f360894a13ba1a3210667c828492db98dca3e2076cc3735a920a3ca505d382bbc80547fffffffffffffffffffffffff00000000000000000000000000000000000000001673ffffffffffffffffffffffffffffffffffffffff92909216919091179055565b6115d0836117b7565b6000825111806115dd5750805b156105e1576115ec8383611804565b50505050565b60015460021461162e576040517f8b4188b300000000000000000000000000000000000000000000000000000000815260040160405180910390fd5b6001609855565b60008260010182610100811061164d5761164d611cb5565b01549392505050565b604080516120008101918290526060916000919060018501906101009082845b8154815260200190600101908083116116765750508654939450610d75938593509150506118d4565b60006116ab8383611349565b6116d3576000828152610161602052604090208054600160ff86161b1790555b5060016105c6565b50600092915050565b60006116e88383611994565b61171757816001840160ff8216610100811061170657611706611cb5565b0155508154600190810183556105c6565b5060006105c6565b600061172b8383611349565b156116d3576000828152610161602052604090208054600160ff86161b191690556116cb565b600080826001850160ff8216610100811061176e5761176e611cb5565b01541461177c576000611781565b60ff83165b905080156117ad576000846001018261010081106117a1576117a1611cb5565b015550600190506105c6565b60009150506105c6565b6117c081611513565b60405173ffffffffffffffffffffffffffffffffffffffff8216907fbc7cd75a20ee27fd9adebab32041f755214dbc6bffa90cc0225b39da2e5c2d3b90600090a250565b606073ffffffffffffffffffffffffffffffffffffffff83163b611854576040517f233b521600000000000000000000000000000000000000000000000000000000815260040160405180910390fd5b6000808473ffffffffffffffffffffffffffffffffffffffff168460405161187c9190611ce4565b600060405180830381855af49150503d80600081146118b7576040519150601f19603f3d011682016040523d82523d6000602084013e6118bc565b606091505b50915091506118cb82826119ba565b95945050505050565b60608167ffffffffffffffff8111156118ef576118ef611b33565b604051908082528060200260200182016040528015611918578160200160208202803683370190505b5090506101006000805b8281101561198b578581610100811061193d5761193d611cb5565b602002015115611983578581610100811061195a5761195a611cb5565b6020020151845160018401938691811061197657611976611cb5565b6020026020010181815250505b600101611922565b50505092915050565b6000816001840160ff821661010081106119b0576119b0611cb5565b0154149392505050565b606082156119c95750806105c6565b8151156119d857815182602001fd5b6040517f59636df400000000000000000000000000000000000000000000000000000000815260040160405180910390fd5b600060208284031215611a1c57600080fd5b81357fffffffff0000000000000000000000000000000000000000000000000000000081168114610d7557600080fd5b60008060408385031215611a5f57600080fd5b50508035926020909101359150565b803573ffffffffffffffffffffffffffffffffffffffff81168114611a9257600080fd5b919050565b60008060408385031215611aaa57600080fd5b611ab383611a6e565b915060208301358015158114611ac857600080fd5b809150509250929050565b600060208284031215611ae557600080fd5b5035919050565b60008060408385031215611aff57600080fd5b82359150611b0f60208401611a6e565b90509250929050565b600060208284031215611b2a57600080fd5b610d7582611a6e565b7f4e487b7100000000000000000000000000000000000000000000000000000000600052604160045260246000fd5b60008060408385031215611b7557600080fd5b611b7e83611a6e565b9150602083013567ffffffffffffffff80821115611b9b57600080fd5b818501915085601f830112611baf57600080fd5b813581811115611bc157611bc1611b33565b604051601f82017fffffffffffffffffffffffffffffffffffffffffffffffffffffffffffffffe0908116603f01168101908382118183101715611c0757611c07611b33565b81604052828152886020848701011115611c2057600080fd5b8260208601602083013760006020848301015280955050505050509250929050565b6020808252825182820181905260009190848201906040850190845b81811015611c9057835173ffffffffffffffffffffffffffffffffffffffff1683529284019291840191600101611c5e565b50909695505050505050565b600060208284031215611cae57600080fd5b5051919050565b7f4e487b7100000000000000000000000000000000000000000000000000000000600052603260045260246000fd5b6000825160005b81811015611d055760208186018101518583015201611ceb565b50600092019182525091905056fea164736f6c6343000811000a",
    "linkReferences": {}
  },
  "methodIdentifiers": {
    "DEFAULT_ADMIN_ROLE()": "a217fddf",
    "VERSION()": "ffa1ad74",
    "getAllRoleMembers(bytes32)": "a6fa0cb4",
    "getRoleAdmin(bytes32)": "248a9ca3",
    "getRoleMember(bytes32,uint256)": "9010d07c",
    "getRoleMemberCount(bytes32)": "ca15c873",
    "grantRole(bytes32,address)": "2f2ff15d",
    "hasRole(bytes32,address)": "91d14854",
    "initialize()": "8129fc1c",
    "isBlacklisted(address)": "fe575a87",
    "pause()": "8456cb59",
    "paused()": "5c975abb",
    "proxiableUUID()": "52d1902d",
    "renounceRole(bytes32,address)": "36568abe",
    "requestAccess(bytes32)": "841fb503",
    "revokeRole(bytes32,address)": "d547741f",
    "setRoleAdmin(bytes32,bytes32)": "1e4e0091",
    "setUserStatus(address,bool)": "21eceff7",
    "supportsInterface(bytes4)": "01ffc9a7",
    "unpause()": "3f4ba83a",
    "upgradeTo(address)": "3659cfe6",
    "upgradeToAndCall(address,bytes)": "4f1ef286",
    "vault()": "fbfa77cf"
  },
  "id": 0
}