{
  "abi": [
    {
      "inputs": [],
      "name": "Base__AlreadySet",
      "type": "error"
    },
    {
      "inputs": [],
      "name": "Base__Blacklisted",
      "type": "error"
    },
    {
      "inputs": [],
      "name": "Base__NotPaused",
      "type": "error"
    },
    {
      "inputs": [],
      "name": "Base__Paused",
      "type": "error"
    },
    {
      "inputs": [],
      "name": "Base__Unauthorized",
      "type": "error"
    },
    {
      "inputs": [],
      "name": "ERC1967UpgradeUpgradeable__DelegateCallToNonContract",
      "type": "error"
    },
    {
      "inputs": [],
      "name": "ERC1967UpgradeUpgradeable__ExecutionFailed",
      "type": "error"
    },
    {
      "inputs": [],
      "name": "ERC1967UpgradeUpgradeable__ImplementationIsNotContract",
      "type": "error"
    },
    {
      "inputs": [],
      "name": "ERC1967UpgradeUpgradeable__ImplementationIsNotUUPS",
      "type": "error"
    },
    {
      "inputs": [],
      "name": "ERC1967UpgradeUpgradeable__UnsupportedProxiableUUID",
      "type": "error"
    },
    {
      "inputs": [],
      "name": "Initializable__AlreadyInitialized",
      "type": "error"
    },
    {
      "inputs": [],
      "name": "Initializable__NotInitializing",
      "type": "error"
    },
    {
      "inputs": [],
      "name": "ProxyChecker__ProxyUnallowed",
      "type": "error"
    },
    {
      "inputs": [],
      "name": "ReentrancyGuard__Locked",
      "type": "error"
    },
    {
      "inputs": [],
      "name": "Signable__InvalidSignature",
      "type": "error"
    },
    {
      "inputs": [],
      "name": "Transferable__InvalidArguments",
      "type": "error"
    },
    {
      "inputs": [],
      "name": "Transferable__TransferFailed",
      "type": "error"
    },
    {
      "inputs": [],
      "name": "Treasury__InvalidSignature",
      "type": "error"
    },
    {
      "inputs": [],
      "name": "UUPSUpgradeable__OnlyActiveProxy",
      "type": "error"
    },
    {
      "inputs": [],
      "name": "UUPSUpgradeable__OnlyCall",
      "type": "error"
    },
    {
      "inputs": [],
      "name": "UUPSUpgradeable__OnlyDelegateCall",
      "type": "error"
    },
    {
      "anonymous": false,
      "inputs": [
        {
          "indexed": false,
          "internalType": "address",
          "name": "previousAdmin",
          "type": "address"
        },
        {
          "indexed": false,
          "internalType": "address",
          "name": "newAdmin",
          "type": "address"
        }
      ],
      "name": "AdminChanged",
      "type": "event"
    },
    {
      "anonymous": false,
      "inputs": [
        {
          "indexed": true,
          "internalType": "contract IAuthority",
          "name": "from",
          "type": "address"
        },
        {
          "indexed": true,
          "internalType": "contract IAuthority",
          "name": "to",
          "type": "address"
        }
      ],
      "name": "AuthorityUpdated",
      "type": "event"
    },
    {
      "anonymous": false,
      "inputs": [
        {
          "indexed": true,
          "internalType": "address",
          "name": "beacon",
          "type": "address"
        }
      ],
      "name": "BeaconUpgraded",
      "type": "event"
    },
    {
      "anonymous": false,
      "inputs": [
        {
          "indexed": false,
          "internalType": "uint256",
          "name": "version",
          "type": "uint256"
        }
      ],
      "name": "Initialized",
      "type": "event"
    },
    {
      "anonymous": false,
      "inputs": [
        {
          "indexed": true,
          "internalType": "contract IERC20Upgradeable",
          "name": "token",
          "type": "address"
        }
      ],
      "name": "PaymentAdded",
      "type": "event"
    },
    {
      "anonymous": false,
      "inputs": [
        {
          "indexed": true,
          "internalType": "contract IERC20Upgradeable",
          "name": "token",
          "type": "address"
        }
      ],
      "name": "PaymentRemoved",
      "type": "event"
    },
    {
      "anonymous": false,
      "inputs": [
        {
          "indexed": true,
          "internalType": "contract IERC20Upgradeable[]",
          "name": "tokens",
          "type": "address[]"
        }
      ],
      "name": "PaymentsAdded",
      "type": "event"
    },
    {
      "anonymous": false,
      "inputs": [
        {
          "indexed": true,
          "internalType": "address",
          "name": "sender",
          "type": "address"
        },
        {
          "indexed": true,
          "internalType": "uint256",
          "name": "value",
          "type": "uint256"
        }
      ],
      "name": "Received",
      "type": "event"
    },
    {
      "anonymous": false,
      "inputs": [
        {
          "indexed": true,
          "internalType": "address",
          "name": "from",
          "type": "address"
        },
        {
          "indexed": false,
          "internalType": "uint256",
          "name": "value",
          "type": "uint256"
        }
      ],
      "name": "SafeReceived",
      "type": "event"
    },
    {
      "anonymous": false,
      "inputs": [
        {
          "indexed": true,
          "internalType": "address",
          "name": "implementation",
          "type": "address"
        }
      ],
      "name": "Upgraded",
      "type": "event"
    },
    {
      "anonymous": false,
      "inputs": [
        {
          "indexed": true,
          "internalType": "contract IERC20Upgradeable",
          "name": "token",
          "type": "address"
        },
        {
          "indexed": true,
          "internalType": "address",
          "name": "to",
          "type": "address"
        },
        {
          "indexed": true,
          "internalType": "uint256",
          "name": "value",
          "type": "uint256"
        }
      ],
      "name": "Withdrawn",
      "type": "event"
    },
    {
      "inputs": [],
      "name": "DOMAIN_SEPARATOR",
      "outputs": [
        {
          "internalType": "bytes32",
          "name": "",
          "type": "bytes32"
        }
      ],
      "stateMutability": "view",
      "type": "function"
    },
    {
      "inputs": [],
      "name": "VERSION",
      "outputs": [
        {
          "internalType": "bytes32",
          "name": "",
          "type": "bytes32"
        }
      ],
      "stateMutability": "view",
      "type": "function"
    },
    {
      "inputs": [
        {
          "internalType": "contract IERC20Upgradeable",
          "name": "token_",
          "type": "address"
        }
      ],
      "name": "addPayment",
      "outputs": [
        {
          "internalType": "bool",
          "name": "added",
          "type": "bool"
        }
      ],
      "stateMutability": "nonpayable",
      "type": "function"
    },
    {
      "inputs": [
        {
          "internalType": "contract IERC20Upgradeable[]",
          "name": "tokens_",
          "type": "address[]"
        }
      ],
      "name": "addPayments",
      "outputs": [],
      "stateMutability": "nonpayable",
      "type": "function"
    },
    {
      "inputs": [],
      "name": "authority",
      "outputs": [
        {
          "internalType": "contract IAuthority",
          "name": "authority_",
          "type": "address"
        }
      ],
      "stateMutability": "view",
      "type": "function"
    },
    {
      "inputs": [
        {
          "internalType": "contract IAuthority",
          "name": "authority_",
          "type": "address"
        }
      ],
      "name": "initialize",
      "outputs": [],
      "stateMutability": "nonpayable",
      "type": "function"
    },
    {
      "inputs": [
        {
          "internalType": "address",
          "name": "sender_",
          "type": "address"
        }
      ],
      "name": "nonces",
      "outputs": [
        {
          "internalType": "uint256",
          "name": "",
          "type": "uint256"
        }
      ],
      "stateMutability": "view",
      "type": "function"
    },
    {
      "inputs": [],
      "name": "payments",
      "outputs": [
        {
          "internalType": "address[]",
          "name": "",
          "type": "address[]"
        }
      ],
      "stateMutability": "view",
      "type": "function"
    },
    {
      "inputs": [],
      "name": "proxiableUUID",
      "outputs": [
        {
          "internalType": "bytes32",
          "name": "",
          "type": "bytes32"
        }
      ],
      "stateMutability": "view",
      "type": "function"
    },
    {
      "inputs": [
        {
          "internalType": "contract IERC20Upgradeable",
          "name": "token_",
          "type": "address"
        }
      ],
      "name": "removePayment",
      "outputs": [],
      "stateMutability": "nonpayable",
      "type": "function"
    },
    {
      "inputs": [
        {
          "internalType": "address",
          "name": "token_",
          "type": "address"
        }
      ],
      "name": "supportedPayment",
      "outputs": [
        {
          "internalType": "bool",
          "name": "",
          "type": "bool"
        }
      ],
      "stateMutability": "view",
      "type": "function"
    },
    {
      "inputs": [
        {
          "internalType": "contract IAuthority",
          "name": "authority_",
          "type": "address"
        }
      ],
      "name": "updateAuthority",
      "outputs": [],
      "stateMutability": "nonpayable",
      "type": "function"
    },
    {
      "inputs": [
        {
          "internalType": "address",
          "name": "newImplementation",
          "type": "address"
        }
      ],
      "name": "upgradeTo",
      "outputs": [],
      "stateMutability": "nonpayable",
      "type": "function"
    },
    {
      "inputs": [
        {
          "internalType": "address",
          "name": "newImplementation",
          "type": "address"
        },
        {
          "internalType": "bytes",
          "name": "data",
          "type": "bytes"
        }
      ],
      "name": "upgradeToAndCall",
      "outputs": [],
      "stateMutability": "payable",
      "type": "function"
    },
    {
      "inputs": [
        {
          "internalType": "contract IERC20Upgradeable",
          "name": "token_",
          "type": "address"
        },
        {
          "internalType": "address",
          "name": "to_",
          "type": "address"
        },
        {
          "internalType": "uint256",
          "name": "amount_",
          "type": "uint256"
        },
        {
          "internalType": "uint256",
          "name": "deadline_",
          "type": "uint256"
        },
        {
          "internalType": "bytes",
          "name": "signature_",
          "type": "bytes"
        }
      ],
      "name": "withdraw",
      "outputs": [],
      "stateMutability": "nonpayable",
      "type": "function"
    },
    {
      "inputs": [
        {
          "internalType": "contract IERC20Upgradeable",
          "name": "token_",
          "type": "address"
        },
        {
          "internalType": "address",
          "name": "to_",
          "type": "address"
        },
        {
          "internalType": "uint256",
          "name": "amount_",
          "type": "uint256"
        }
      ],
      "name": "withdraw",
      "outputs": [],
      "stateMutability": "nonpayable",
      "type": "function"
    },
    {
      "stateMutability": "payable",
      "type": "receive"
    }
  ],
  "bytecode": {
    "object": "0x60a06040523060805234801561001457600080fd5b5060805161218f61004c600039600081816106ad015281816107070152818161090b015281816109650152610a58015261218f6000f3fe6080604052600436106100f75760003560e01c80638007b3f91161008a578063d9caed1211610059578063d9caed12146102c9578063e5abc173146102e9578063edf06f7b14610309578063ffa1ad741461032957600080fd5b80638007b3f914610222578063a6d23e1014610252578063bf7e214f14610274578063c4d66de8146102a957600080fd5b80633c716e08116100c65780633c716e08146101ba5780634f1ef286146101da57806352d1902d146101ed5780637ecebe001461020257600080fd5b8063074540da14610130578063146e307a146101525780633644e515146101725780633659cfe61461019a57600080fd5b3661012b57604051349033907f88a5966d370b9919b20f3e2c13ff65706f196a4e32cc2c12bf57088f8852587490600090a3005b600080fd5b34801561013c57600080fd5b5061015061014b366004611d49565b61035d565b005b34801561015e57600080fd5b5061015061016d366004611df3565b6105a2565b34801561017e57600080fd5b50610187610687565b6040519081526020015b60405180910390f35b3480156101a657600080fd5b506101506101b5366004611e68565b610696565b3480156101c657600080fd5b506101506101d5366004611e68565b6107ef565b6101506101e8366004611eb4565b6108f4565b3480156101f957600080fd5b50610187610a3e565b34801561020e57600080fd5b5061018761021d366004611e68565b610ad4565b34801561022e57600080fd5b5061024261023d366004611e68565b610aeb565b6040519015158152602001610191565b34801561025e57600080fd5b50610267610af9565b6040516101919190611f96565b34801561028057600080fd5b5060ca5460405173ffffffffffffffffffffffffffffffffffffffff9091168152602001610191565b3480156102b557600080fd5b506101506102c4366004611e68565b610b06565b3480156102d557600080fd5b506101506102e4366004611ff0565b610c51565b3480156102f557600080fd5b50610150610304366004611e68565b610ce8565b34801561031557600080fd5b50610242610324366004611e68565b610d71565b34801561033557600080fd5b506101877fea88ed743f2d0583b98ad2b145c450d84d46c8e4d6425d9e0c7cd0e4930fce2f81565b6101c65460020361039a576040517fc0d27a9700000000000000000000000000000000000000000000000000000000815260040160405180910390fd5b60026101c6556103a8610df1565b6103b185610e9b565b6103ba85610ea5565b82421115610428576040517f08c379a000000000000000000000000000000000000000000000000000000000815260206004820152601160248201527f54524541535552593a2045585049524544000000000000000000000000000000604482015260640160405180910390fd5b6104f87fe2f4eaae4a9751e85a3e4a7b9587827a877f29914755229b07a7b2da98285f706104f37f984451e1880855a56058ebd6b0f6c8dd534f21c83a8dedad93ab0e57c6c84c7a898989896104938360009081526101306020526040902080546001810190915590565b60408051602081019790975273ffffffffffffffffffffffffffffffffffffffff95861690870152939092166060850152608084015260a083015260c082015260e001604051602081830303815290604052805190602001208585610f71565b610f90565b61052e576040517f62188a5a00000000000000000000000000000000000000000000000000000000815260040160405180910390fd5b61053986868661103b565b838573ffffffffffffffffffffffffffffffffffffffff168773ffffffffffffffffffffffffffffffffffffffff167fd1c19fbcd4551a5edfb66d43d2e337c04837afda3482b42bdf569a8fccdae5fb60405160405180910390a4505060016101c65550505050565b7f3496e2e73c4d42b75d702e60d9e48102720b8691234415963a5a857b86425d076105cd81336110be565b60606000848480806020026020016040519081016040528093929190818152602001838360200280828437600092018290525084519496509394505050505b8181101561063f5761063683828151811061062957610629612031565b6020026020010151611190565b5060010161060c565b508484604051610650929190612060565b604051908190038120907f070d6fd5556b747e9a8bfa16b30a883eb9e70e27f614056fc624109ef461453390600090a25050505050565b600061069161119e565b905090565b73ffffffffffffffffffffffffffffffffffffffff7f0000000000000000000000000000000000000000000000000000000000000000163003610705576040517ff96c3be000000000000000000000000000000000000000000000000000000000815260040160405180910390fd5b7f000000000000000000000000000000000000000000000000000000000000000073ffffffffffffffffffffffffffffffffffffffff1661077a7f360894a13ba1a3210667c828492db98dca3e2076cc3735a920a3ca505d382bbc5473ffffffffffffffffffffffffffffffffffffffff1690565b73ffffffffffffffffffffffffffffffffffffffff16146107c7576040517f7860576200000000000000000000000000000000000000000000000000000000815260040160405180910390fd5b6107d081611219565b604080516000808252602082019092526107ec91839190611244565b50565b7f97667070c54ef182b0f5858b034beac1b6f3089aa2d3188bb1e8929f4fa9b92961081a81336110be565b600061082560ca5490565b90508273ffffffffffffffffffffffffffffffffffffffff168173ffffffffffffffffffffffffffffffffffffffff160361088c576040517f4ef9984200000000000000000000000000000000000000000000000000000000815260040160405180910390fd5b6108958360ca55565b8273ffffffffffffffffffffffffffffffffffffffff168173ffffffffffffffffffffffffffffffffffffffff167fa3396fd7f6e0a21b50e5089d2da70d5ac0a3bbbd1f617a93f134b7638998019860405160405180910390a3505050565b73ffffffffffffffffffffffffffffffffffffffff7f0000000000000000000000000000000000000000000000000000000000000000163003610963576040517ff96c3be000000000000000000000000000000000000000000000000000000000815260040160405180910390fd5b7f000000000000000000000000000000000000000000000000000000000000000073ffffffffffffffffffffffffffffffffffffffff166109d87f360894a13ba1a3210667c828492db98dca3e2076cc3735a920a3ca505d382bbc5473ffffffffffffffffffffffffffffffffffffffff1690565b73ffffffffffffffffffffffffffffffffffffffff1614610a25576040517f7860576200000000000000000000000000000000000000000000000000000000815260040160405180910390fd5b610a2e82611219565b610a3a82826001611244565b5050565b60003073ffffffffffffffffffffffffffffffffffffffff7f00000000000000000000000000000000000000000000000000000000000000001614610aaf576040517ff2e149be00000000000000000000000000000000000000000000000000000000815260040160405180910390fd5b507f360894a13ba1a3210667c828492db98dca3e2076cc3735a920a3ca505d382bbc90565b600081815261013060205260408120545b92915050565b6000610ae56101f883611397565b60606106916101f86113c6565b6001546000546002909114801591908290610b1f575080155b80610b345750806001148015610b345750303b155b610b6a576040517f2e8adaaa00000000000000000000000000000000000000000000000000000000815260040160405180910390fd5b60016000558115610b7b5760026001555b610b856000611190565b50610b8e6113d3565b610b99836000611417565b610c0d6040518060400160405260088152806020017f54726561737572790000000000000000000000000000000000000000000000008152506040518060400160405280600181526020017f310000000000000000000000000000000000000000000000000000000000000081525061145d565b8115610c4c5760018080556040519081527fbe9b076dc5b65990cca9dd9d7366682482e7817a6f6bc7f4faf4dc32af497f329060200160405180910390a15b505050565b7f3496e2e73c4d42b75d702e60d9e48102720b8691234415963a5a857b86425d07610c7c81336110be565b610c8784848461103b565b818373ffffffffffffffffffffffffffffffffffffffff168573ffffffffffffffffffffffffffffffffffffffff167fd1c19fbcd4551a5edfb66d43d2e337c04837afda3482b42bdf569a8fccdae5fb60405160405180910390a450505050565b610cf06114a3565b7f3496e2e73c4d42b75d702e60d9e48102720b8691234415963a5a857b86425d07610d1b81336110be565b610d276101f88361154a565b15610a3a5760405173ffffffffffffffffffffffffffffffffffffffff8316907f98e0ae8c0ac21cdd4b0a6a2c72737be54e995c54f6ef61b3cd19ec71ed22533b90600090a25050565b60007f3496e2e73c4d42b75d702e60d9e48102720b8691234415963a5a857b86425d07610d9e81336110be565b610da783611190565b60405190925073ffffffffffffffffffffffffffffffffffffffff8416907f4a9da9e2d3424897a2aa243ede822bff4f48107af55d1d94caed9a6501c968c390600090a250919050565b60ca5473ffffffffffffffffffffffffffffffffffffffff16635c975abb6040518163ffffffff1660e01b8152600401602060405180830381865afa158015610e3e573d6000803e3d6000fd5b505050506040513d601f19601f82011682018060405250810190610e6291906120af565b15610e99576040517f94a75b5300000000000000000000000000000000000000000000000000000000815260040160405180910390fd5b565b6107ec813261156c565b60ca546040517ffe575a8700000000000000000000000000000000000000000000000000000000815273ffffffffffffffffffffffffffffffffffffffff8381166004830152919091169063fe575a8790602401602060405180830381865afa158015610f16573d6000803e3d6000fd5b505050506040513d601f19601f82011682018060405250810190610f3a91906120af565b156107ec576040517f6b50958f00000000000000000000000000000000000000000000000000000000815260040160405180910390fd5b6000610f888383610f81876115e1565b9190611629565b949350505050565b6000610f9b60ca5490565b6040517f91d148540000000000000000000000000000000000000000000000000000000081526004810185905273ffffffffffffffffffffffffffffffffffffffff848116602483015291909116906391d1485490604401602060405180830381865afa158015611010573d6000803e3d6000fd5b505050506040513d601f19601f8201168201806040525081019061103491906120af565b9392505050565b61104582826116e4565b600073ffffffffffffffffffffffffffffffffffffffff84166110735761106c838361175c565b9050611081565b61107e84848461176f565b90505b806110b8576040517f8650e6f000000000000000000000000000000000000000000000000000000000815260040160405180910390fd5b50505050565b60ca546040517f91d148540000000000000000000000000000000000000000000000000000000081526004810184905273ffffffffffffffffffffffffffffffffffffffff838116602483015291909116906391d1485490604401602060405180830381865afa158015611136573d6000803e3d6000fd5b505050506040513d601f19601f8201168201806040525081019061115a91906120af565b610a3a576040517f5d53684100000000000000000000000000000000000000000000000000000000815260040160405180910390fd5b6000610ae56101f8836117c7565b60006106917f8b73c3c69bb8fe3d512ecc4cf759cc79239f7b179b0ffacaa9a75d522b39400f6111cd60fc5490565b60fd546040805160208101859052908101839052606081018290524660808201523060a082015260009060c0016040516020818303038152906040528051906020012090509392505050565b7f189ab7a9244df0848122154315af71fe140f3db0fe014031783b0946b8c9d2e3610a3a81336110be565b7f4910fdfa16fed3260ed0e7147f7cc6da11a60208b5b9406d12a635614ffd91435460ff161561127757610c4c836117e9565b8273ffffffffffffffffffffffffffffffffffffffff166352d1902d6040518163ffffffff1660e01b8152600401602060405180830381865afa9250505080156112fc575060408051601f3d9081017fffffffffffffffffffffffffffffffffffffffffffffffffffffffffffffffe01682019092526112f9918101906120d1565b60015b611332576040517f38622d4300000000000000000000000000000000000000000000000000000000815260040160405180910390fd5b7f360894a13ba1a3210667c828492db98dca3e2076cc3735a920a3ca505d382bbc811461138b576040517f14edfa8000000000000000000000000000000000000000000000000000000000815260040160405180910390fd5b50610c4c83838361189d565b73ffffffffffffffffffffffffffffffffffffffff811660009081526001830160205260408120541515611034565b60606000611034836118c2565b60015460021461140f576040517f8b4188b300000000000000000000000000000000000000000000000000000000815260040160405180910390fd5b610e9961191e565b600154600214611453576040517f8b4188b300000000000000000000000000000000000000000000000000000000815260040160405180910390fd5b610a3a8282611962565b600154600214611499576040517f8b4188b300000000000000000000000000000000000000000000000000000000815260040160405180910390fd5b610a3a8282611a27565b60ca5473ffffffffffffffffffffffffffffffffffffffff16635c975abb6040518163ffffffff1660e01b8152600401602060405180830381865afa1580156114f0573d6000803e3d6000fd5b505050506040513d601f19601f8201168201806040525081019061151491906120af565b610e99576040517fff31255e00000000000000000000000000000000000000000000000000000000815260040160405180910390fd5b60006110348373ffffffffffffffffffffffffffffffffffffffff8416611a78565b73ffffffffffffffffffffffffffffffffffffffff8083169082161415806115aa575073ffffffffffffffffffffffffffffffffffffffff82163b15155b15610a3a576040517f37678ac400000000000000000000000000000000000000000000000000000000815260040160405180910390fd5b6000610ae56115ee61119e565b836040517f19010000000000000000000000000000000000000000000000000000000000008152600281019290925260228201526042902090565b600060405160208401358360408114611649576041811461167d57611689565b601b8260ff1c016020527f7fffffffffffffffffffffffffffffffffffffffffffffffffffffffffffffff82169150611689565b604086013560001a6020525b507f7fffffffffffffffffffffffffffffff5d576e7357a4501ddfe92f46681b20a081116116d9578560005260208560403780606052602060406080600060015afa5060006060523d6060035192505b506040529392505050565b801580611705575073ffffffffffffffffffffffffffffffffffffffff8216155b80611725575073ffffffffffffffffffffffffffffffffffffffff821630145b15610a3a576040517f8aa97e7d00000000000000000000000000000000000000000000000000000000815260040160405180910390fd5b600080600080600085875af19392505050565b60006040517fa9059cbb000000000000000000000000000000000000000000000000000000008152836004820152826024820152602060006044836000895af1600051600114601f3d11163d15171695945050505050565b60006110348373ffffffffffffffffffffffffffffffffffffffff8416611b6b565b73ffffffffffffffffffffffffffffffffffffffff81163b611837576040517f2390ec9c00000000000000000000000000000000000000000000000000000000815260040160405180910390fd5b7f360894a13ba1a3210667c828492db98dca3e2076cc3735a920a3ca505d382bbc80547fffffffffffffffffffffffff00000000000000000000000000000000000000001673ffffffffffffffffffffffffffffffffffffffff92909216919091179055565b6118a683611bba565b6000825111806118b35750805b15610c4c576110b88383611c07565b60608160000180548060200260200160405190810160405280929190818152602001828054801561191257602002820191906000526020600020905b8154815260200190600101908083116118fe575b50505050509050919050565b60015460021461195a576040517f8b4188b300000000000000000000000000000000000000000000000000000000815260040160405180910390fd5b60016101c655565b60015460021461199e576040517f8b4188b300000000000000000000000000000000000000000000000000000000815260040160405180910390fd5b6040517f841fb5030000000000000000000000000000000000000000000000000000000081526004810182905273ffffffffffffffffffffffffffffffffffffffff83169063841fb50390602401600060405180830381600087803b158015611a0657600080fd5b505af1158015611a1a573d6000803e3d6000fd5b50505050610a3a8260ca55565b600154600214611a63576040517f8b4188b300000000000000000000000000000000000000000000000000000000815260040160405180910390fd5b815160209283012060fc55805191012060fd55565b60008181526001830160205260408120548015611b61576000611a9c6001836120ea565b8554909150600090611ab0906001906120ea565b9050818114611b15576000866000018281548110611ad057611ad0612031565b9060005260206000200154905080876000018481548110611af357611af3612031565b6000918252602080832090910192909255918252600188019052604090208390555b8554869080611b2657611b26612124565b600190038181906000526020600020016000905590558560010160008681526020019081526020016000206000905560019350505050610ae5565b6000915050610ae5565b6000818152600183016020526040812054611bb257508154600181810184556000848152602080822090930184905584548482528286019093526040902091909155610ae5565b506000610ae5565b611bc3816117e9565b60405173ffffffffffffffffffffffffffffffffffffffff8216907fbc7cd75a20ee27fd9adebab32041f755214dbc6bffa90cc0225b39da2e5c2d3b90600090a250565b606073ffffffffffffffffffffffffffffffffffffffff83163b611c57576040517f233b521600000000000000000000000000000000000000000000000000000000815260040160405180910390fd5b6000808473ffffffffffffffffffffffffffffffffffffffff1684604051611c7f9190612153565b600060405180830381855af49150503d8060008114611cba576040519150601f19603f3d011682016040523d82523d6000602084013e611cbf565b606091505b5091509150611cce8282611cd7565b95945050505050565b60608215611ce6575080610ae5565b815115611cf557815182602001fd5b6040517f59636df400000000000000000000000000000000000000000000000000000000815260040160405180910390fd5b73ffffffffffffffffffffffffffffffffffffffff811681146107ec57600080fd5b60008060008060008060a08789031215611d6257600080fd5b8635611d6d81611d27565b95506020870135611d7d81611d27565b94506040870135935060608701359250608087013567ffffffffffffffff80821115611da857600080fd5b818901915089601f830112611dbc57600080fd5b813581811115611dcb57600080fd5b8a6020828501011115611ddd57600080fd5b6020830194508093505050509295509295509295565b60008060208385031215611e0657600080fd5b823567ffffffffffffffff80821115611e1e57600080fd5b818501915085601f830112611e3257600080fd5b813581811115611e4157600080fd5b8660208260051b8501011115611e5657600080fd5b60209290920196919550909350505050565b600060208284031215611e7a57600080fd5b813561103481611d27565b7f4e487b7100000000000000000000000000000000000000000000000000000000600052604160045260246000fd5b60008060408385031215611ec757600080fd5b8235611ed281611d27565b9150602083013567ffffffffffffffff80821115611eef57600080fd5b818501915085601f830112611f0357600080fd5b813581811115611f1557611f15611e85565b604051601f82017fffffffffffffffffffffffffffffffffffffffffffffffffffffffffffffffe0908116603f01168101908382118183101715611f5b57611f5b611e85565b81604052828152886020848701011115611f7457600080fd5b8260208601602083013760006020848301015280955050505050509250929050565b6020808252825182820181905260009190848201906040850190845b81811015611fe457835173ffffffffffffffffffffffffffffffffffffffff1683529284019291840191600101611fb2565b50909695505050505050565b60008060006060848603121561200557600080fd5b833561201081611d27565b9250602084013561202081611d27565b929592945050506040919091013590565b7f4e487b7100000000000000000000000000000000000000000000000000000000600052603260045260246000fd5b60008184825b858110156120a457813561207981611d27565b73ffffffffffffffffffffffffffffffffffffffff1683526020928301929190910190600101612066565b509095945050505050565b6000602082840312156120c157600080fd5b8151801515811461103457600080fd5b6000602082840312156120e357600080fd5b5051919050565b81810381811115610ae5577f4e487b7100000000000000000000000000000000000000000000000000000000600052601160045260246000fd5b7f4e487b7100000000000000000000000000000000000000000000000000000000600052603160045260246000fd5b6000825160005b81811015612174576020818601810151858301520161215a565b50600092019182525091905056fea164736f6c6343000811000a",
    "linkReferences": {}
  },
  "methodIdentifiers": {
    "DOMAIN_SEPARATOR()": "3644e515",
    "VERSION()": "ffa1ad74",
    "addPayment(address)": "edf06f7b",
    "addPayments(address[])": "146e307a",
    "authority()": "bf7e214f",
    "initialize(address)": "c4d66de8",
    "nonces(address)": "7ecebe00",
    "payments()": "a6d23e10",
    "proxiableUUID()": "52d1902d",
    "removePayment(address)": "e5abc173",
    "supportedPayment(address)": "8007b3f9",
    "updateAuthority(address)": "3c716e08",
    "upgradeTo(address)": "3659cfe6",
    "upgradeToAndCall(address,bytes)": "4f1ef286",
    "withdraw(address,address,uint256)": "d9caed12",
    "withdraw(address,address,uint256,uint256,bytes)": "074540da"
  },
  "id": 3
}