{
  "abi": [
    {
      "inputs": [
        {
          "internalType": "address",
          "name": "vault_",
          "type": "address"
        },
        {
          "internalType": "contract IAuthority",
          "name": "authority_",
          "type": "address"
        }
      ],
      "stateMutability": "payable",
      "type": "constructor"
    },
    {
      "inputs": [],
      "name": "Base__AlreadySet",
      "type": "error"
    },
    {
      "inputs": [],
      "name": "Base__Paused",
      "type": "error"
    },
    {
      "inputs": [],
      "name": "Base__Unauthorized",
      "type": "error"
    },
    {
      "inputs": [],
      "name": "FundForwarder__ForwardFailed",
      "type": "error"
    },
    {
      "inputs": [],
      "name": "ReceiveGate__ExecutionFailed",
      "type": "error"
    },
    {
      "inputs": [],
      "name": "ReceiveGate__Expired",
      "type": "error"
    },
    {
      "inputs": [
        {
          "internalType": "address",
          "name": "addr",
          "type": "address"
        }
      ],
      "name": "ReceiveGate__UnknownAddress",
      "type": "error"
    },
    {
      "inputs": [],
      "name": "Transferable__InvalidArguments",
      "type": "error"
    },
    {
      "inputs": [],
      "name": "Transferable__TransferFailed",
      "type": "error"
    },
    {
      "anonymous": false,
      "inputs": [
        {
          "indexed": true,
          "internalType": "contract IAuthority",
          "name": "from",
          "type": "address"
        },
        {
          "indexed": true,
          "internalType": "contract IAuthority",
          "name": "to",
          "type": "address"
        }
      ],
      "name": "AuthorityUpdated",
      "type": "event"
    },
    {
      "anonymous": false,
      "inputs": [
        {
          "indexed": true,
          "internalType": "address",
          "name": "from",
          "type": "address"
        },
        {
          "indexed": true,
          "internalType": "uint256",
          "name": "amount",
          "type": "uint256"
        }
      ],
      "name": "Forwarded",
      "type": "event"
    },
    {
      "anonymous": false,
      "inputs": [
        {
          "indexed": true,
          "internalType": "address",
          "name": "token",
          "type": "address"
        },
        {
          "indexed": true,
          "internalType": "address",
          "name": "from",
          "type": "address"
        },
        {
          "indexed": true,
          "internalType": "uint256",
          "name": "value",
          "type": "uint256"
        }
      ],
      "name": "Received",
      "type": "event"
    },
    {
      "inputs": [],
      "name": "authority",
      "outputs": [
        {
          "internalType": "contract IAuthority",
          "name": "authority_",
          "type": "address"
        }
      ],
      "stateMutability": "view",
      "type": "function"
    },
    {
      "inputs": [
        {
          "internalType": "contract IERC20Permit",
          "name": "token_",
          "type": "address"
        },
        {
          "internalType": "uint256",
          "name": "value_",
          "type": "uint256"
        },
        {
          "internalType": "uint256",
          "name": "deadline_",
          "type": "uint256"
        },
        {
          "internalType": "uint8",
          "name": "v",
          "type": "uint8"
        },
        {
          "internalType": "bytes32",
          "name": "r",
          "type": "bytes32"
        },
        {
          "internalType": "bytes32",
          "name": "s",
          "type": "bytes32"
        },
        {
          "internalType": "bytes4",
          "name": "fnSig_",
          "type": "bytes4"
        },
        {
          "internalType": "address",
          "name": "contract_",
          "type": "address"
        },
        {
          "internalType": "bytes",
          "name": "data_",
          "type": "bytes"
        }
      ],
      "name": "depositERC20WithCommand",
      "outputs": [],
      "stateMutability": "nonpayable",
      "type": "function"
    },
    {
      "inputs": [
        {
          "internalType": "uint256[]",
          "name": "tokenIds_",
          "type": "uint256[]"
        },
        {
          "internalType": "address[]",
          "name": "contracts_",
          "type": "address[]"
        },
        {
          "internalType": "bytes",
          "name": "data_",
          "type": "bytes"
        }
      ],
      "name": "depositERC721MultiWithCommand",
      "outputs": [],
      "stateMutability": "nonpayable",
      "type": "function"
    },
    {
      "inputs": [
        {
          "internalType": "address",
          "name": "contract_",
          "type": "address"
        },
        {
          "internalType": "bytes4",
          "name": "fnSig_",
          "type": "bytes4"
        },
        {
          "internalType": "bytes",
          "name": "params_",
          "type": "bytes"
        }
      ],
      "name": "depositNativeTokenWithCommand",
      "outputs": [],
      "stateMutability": "payable",
      "type": "function"
    },
    {
      "inputs": [],
      "name": "kill",
      "outputs": [],
      "stateMutability": "nonpayable",
      "type": "function"
    },
    {
      "inputs": [
        {
          "internalType": "address",
          "name": "",
          "type": "address"
        },
        {
          "internalType": "address",
          "name": "",
          "type": "address"
        },
        {
          "internalType": "uint256",
          "name": "",
          "type": "uint256"
        },
        {
          "internalType": "bytes",
          "name": "data_",
          "type": "bytes"
        }
      ],
      "name": "onERC721Received",
      "outputs": [
        {
          "internalType": "bytes4",
          "name": "",
          "type": "bytes4"
        }
      ],
      "stateMutability": "nonpayable",
      "type": "function"
    },
    {
      "inputs": [],
      "name": "original",
      "outputs": [
        {
          "internalType": "address",
          "name": "",
          "type": "address"
        }
      ],
      "stateMutability": "view",
      "type": "function"
    },
    {
      "inputs": [
        {
          "internalType": "contract IAuthority",
          "name": "authority_",
          "type": "address"
        }
      ],
      "name": "updateAuthority",
      "outputs": [],
      "stateMutability": "nonpayable",
      "type": "function"
    },
    {
      "inputs": [],
      "name": "vault",
      "outputs": [
        {
          "internalType": "address",
          "name": "",
          "type": "address"
        }
      ],
      "stateMutability": "view",
      "type": "function"
    },
    {
      "inputs": [
        {
          "internalType": "address",
          "name": "addr_",
          "type": "address"
        }
      ],
      "name": "whitelistAddress",
      "outputs": [],
      "stateMutability": "nonpayable",
      "type": "function"
    },
    {
      "inputs": [
        {
          "internalType": "address",
          "name": "token_",
          "type": "address"
        },
        {
          "internalType": "address",
          "name": "to_",
          "type": "address"
        },
        {
          "internalType": "uint256",
          "name": "value_",
          "type": "uint256"
        }
      ],
      "name": "withdrawTo",
      "outputs": [],
      "stateMutability": "nonpayable",
      "type": "function"
    },
    {
      "stateMutability": "payable",
      "type": "receive"
    }
  ],
  "bytecode": {
    "object": "0x60c06040526040516200193d3803806200193d8339810160408190526200002691620000d2565b60405163841fb50360e01b815260006004820181905283918391906001600160a01b0383169063841fb50390602401600060405180830381600087803b1580156200007057600080fd5b505af115801562000085573d6000803e3d6000fd5b505050506200009a82620000b460201b60201c565b50506001600160a01b031660805250503060a05262000111565b600055565b6001600160a01b0381168114620000cf57600080fd5b50565b60008060408385031215620000e657600080fd5b8251620000f381620000b9565b60208401519092506200010681620000b9565b809150509250929050565b60805160a0516117f962000144600039600061027201526000818160c901528181610353015261061a01526117f96000f3fe6080604052600436106100c05760003560e01c80638cfd441b11610074578063c3b35a7e1161004e578063c3b35a7e14610301578063efedad0f14610321578063fbfa77cf1461034157600080fd5b80638cfd441b146102b9578063aeb21ec6146102cc578063bf7e214f146102ec57600080fd5b806341566585116100a5578063415665851461022b57806341c0e1b51461024b57806346c715fa1461026057600080fd5b8063150b7a02146101b35780633c716e081461020957600080fd5b366101ae5760007f000000000000000000000000000000000000000000000000000000000000000073ffffffffffffffffffffffffffffffffffffffff163460405160006040518083038185875af1925050503d806000811461013f576040519150601f19603f3d011682016040523d82523d6000602084013e610144565b606091505b505090508061017f576040517f68ef1d7400000000000000000000000000000000000000000000000000000000815260040160405180910390fd5b604051349033907f6f1deddfc28100c291fae8f1064e4a91e844f0841993bb8fba9a913c3b801d8090600090a3005b600080fd5b3480156101bf57600080fd5b506101d36101ce366004611252565b610375565b6040517fffffffff0000000000000000000000000000000000000000000000000000000090911681526020015b60405180910390f35b34801561021557600080fd5b506102296102243660046112c5565b610498565b005b34801561023757600080fd5b506102296102463660046112c5565b610580565b34801561025757600080fd5b506102296105ed565b34801561026c57600080fd5b506102947f000000000000000000000000000000000000000000000000000000000000000081565b60405173ffffffffffffffffffffffffffffffffffffffff9091168152602001610200565b6102296102c7366004611319565b610651565b3480156102d857600080fd5b506102296102e73660046113c1565b610745565b3480156102f857600080fd5b50600054610294565b34801561030d57600080fd5b5061022961031c36600461145b565b610821565b34801561032d57600080fd5b5061022961033c36600461149c565b610973565b34801561034d57600080fd5b506102947f000000000000000000000000000000000000000000000000000000000000000081565b6000806000806103858686610b23565b9250925092506103cc6103ab8473ffffffffffffffffffffffffffffffffffffffff1690565b600881901c60009081526001602081905260409091205460ff9092161b1690565b61041f576040517fde15033400000000000000000000000000000000000000000000000000000000815273ffffffffffffffffffffffffffffffffffffffff841660048201526024015b60405180910390fd5b604080513360208201526000818301528151808203830181526060820190925261046a918591859161045691869190608001611587565b604051602081830303815290604052610baf565b507f150b7a020000000000000000000000000000000000000000000000000000000098975050505050505050565b7f97667070c54ef182b0f5858b034beac1b6f3089aa2d3188bb1e8929f4fa9b9296104c38133610c90565b60005473ffffffffffffffffffffffffffffffffffffffff80841690821603610518576040517f4ef9984200000000000000000000000000000000000000000000000000000000815260040160405180910390fd5b61052183600055565b8273ffffffffffffffffffffffffffffffffffffffff168173ffffffffffffffffffffffffffffffffffffffff167fa3396fd7f6e0a21b50e5089d2da70d5ac0a3bbbd1f617a93f134b7638998019860405160405180910390a3505050565b7f97667070c54ef182b0f5858b034beac1b6f3089aa2d3188bb1e8929f4fa9b9296105ab8133610c90565b72ffffffffffffffffffffffffffffffffffffff600883901c166000908152600160208190526040909120805460ff85169290921b90911790555050565b5050565b7fdfbefbf47cfe66b701d8cfdbce1de81c821590819cb07e71cb01b6602fb0ee276106188133610c90565b7f000000000000000000000000000000000000000000000000000000000000000073ffffffffffffffffffffffffffffffffffffffff16ff5b610659610d62565b61067873ffffffffffffffffffffffffffffffffffffffff85166103ab565b6106c6576040517fde15033400000000000000000000000000000000000000000000000000000000815273ffffffffffffffffffffffffffffffffffffffff85166004820152602401610416565b61073f8484848460003460405160200161070292919073ffffffffffffffffffffffffffffffffffffffff929092168252602082015260400190565b604080517fffffffffffffffffffffffffffffffffffffffffffffffffffffffffffffffe0818403018152908290526104569392916020016115a4565b50505050565b61074d610d62565b843360005b828110156108165786868281811061076c5761076c6115bb565b905060200201602081019061078191906112c5565b73ffffffffffffffffffffffffffffffffffffffff1663b88d4fde83308c8c868181106107b0576107b06115bb565b9050602002013589896040518663ffffffff1660e01b81526004016107d99594939291906115ea565b600060405180830381600087803b1580156107f357600080fd5b505af1158015610807573d6000803e3d6000fd5b50505050806001019050610752565b505050505050505050565b61086173ffffffffffffffffffffffffffffffffffffffff84167f36372b0700000000000000000000000000000000000000000000000000000000610e0c565b1561087657610871838383610e31565b505050565b6108b673ffffffffffffffffffffffffffffffffffffffff84167f80ac58cd00000000000000000000000000000000000000000000000000000000610e0c565b1561094e576040517f42842e0e00000000000000000000000000000000000000000000000000000000815230600482015273ffffffffffffffffffffffffffffffffffffffff8381166024830152604482018390528416906342842e0e90606401600060405180830381600087803b15801561093157600080fd5b505af1158015610945573d6000803e3d6000fd5b50505050505050565b73ffffffffffffffffffffffffffffffffffffffff8316610871576108718282610e7c565b61097b610d62565b33428910156109b6576040517fd90aed6e00000000000000000000000000000000000000000000000000000000815260040160405180910390fd5b6109d573ffffffffffffffffffffffffffffffffffffffff85166103ab565b610a23576040517fde15033400000000000000000000000000000000000000000000000000000000815273ffffffffffffffffffffffffffffffffffffffff85166004820152602401610416565b6040517fd505accf00000000000000000000000000000000000000000000000000000000815273ffffffffffffffffffffffffffffffffffffffff8281166004830152306024830152604482018c9052606482018b905260ff8a16608483015260a4820189905260c482018890528c169063d505accf9060e401600060405180830381600087803b158015610ab757600080fd5b505af1158015610acb573d6000803e3d6000fd5b50505050610adb8b82308d610ec6565b610b16848685858f8f60405160200161070292919073ffffffffffffffffffffffffffffffffffffffff929092168252602082015260400190565b5050505050505050505050565b6000806060610b3484860186611698565b91945092509050610b5a73ffffffffffffffffffffffffffffffffffffffff84166103ab565b610ba8576040517fde15033400000000000000000000000000000000000000000000000000000000815273ffffffffffffffffffffffffffffffffffffffff84166004820152602401610416565b9250925092565b60008373ffffffffffffffffffffffffffffffffffffffff168383604051602001610bdb92919061178a565b604080517fffffffffffffffffffffffffffffffffffffffffffffffffffffffffffffffe081840301815290829052610c13916117be565b6000604051808303816000865af19150503d8060008114610c50576040519150601f19603f3d011682016040523d82523d6000602084013e610c55565b606091505b505090508061073f576040517fc646a70d00000000000000000000000000000000000000000000000000000000815260040160405180910390fd5b6000546040517f91d148540000000000000000000000000000000000000000000000000000000081526004810184905273ffffffffffffffffffffffffffffffffffffffff838116602483015291909116906391d1485490604401602060405180830381865afa158015610d08573d6000803e3d6000fd5b505050506040513d601f19601f82011682018060405250810190610d2c91906117ca565b6105e9576040517f5d53684100000000000000000000000000000000000000000000000000000000815260040160405180910390fd5b60005473ffffffffffffffffffffffffffffffffffffffff16635c975abb6040518163ffffffff1660e01b8152600401602060405180830381865afa158015610daf573d6000803e3d6000fd5b505050506040513d601f19601f82011682018060405250810190610dd391906117ca565b15610e0a576040517f94a75b5300000000000000000000000000000000000000000000000000000000815260040160405180910390fd5b565b6000610e1783610f12565b8015610e285750610e288383610f76565b90505b92915050565b610e3b82826110b2565b610e4683838361110a565b610871576040517f8650e6f000000000000000000000000000000000000000000000000000000000815260040160405180910390fd5b610e8682826110b2565b610e908282611162565b6105e9576040517f8650e6f000000000000000000000000000000000000000000000000000000000815260040160405180910390fd5b610ed082826110b2565b610edc84848484611175565b61073f576040517f8650e6f000000000000000000000000000000000000000000000000000000000815260040160405180910390fd5b6000610f3e827f01ffc9a700000000000000000000000000000000000000000000000000000000610f76565b8015610e2b5750610f6f827fffffffff00000000000000000000000000000000000000000000000000000000610f76565b1592915050565b604080517fffffffff00000000000000000000000000000000000000000000000000000000831660248083019190915282518083039091018152604490910182526020810180517bffffffffffffffffffffffffffffffffffffffffffffffffffffffff167f01ffc9a7000000000000000000000000000000000000000000000000000000001790529051600091908290819073ffffffffffffffffffffffffffffffffffffffff871690617530906110309086906117be565b6000604051808303818686fa925050503d806000811461106c576040519150601f19603f3d011682016040523d82523d6000602084013e611071565b606091505b509150915060208151101561108c5760009350505050610e2b565b8180156110a85750808060200190518101906110a891906117ca565b9695505050505050565b8015806110d3575073ffffffffffffffffffffffffffffffffffffffff8216155b156105e9576040517f8aa97e7d00000000000000000000000000000000000000000000000000000000815260040160405180910390fd5b60006040517fa9059cbb000000000000000000000000000000000000000000000000000000008152836004820152826024820152602060006044836000895af1600051600114601f3d11163d15171695945050505050565b600080600080600085875af19392505050565b60006040517f23b872dd0000000000000000000000000000000000000000000000000000000081528460048201528360248201528260448201526020600060648360008a5af1600051600114601f3d11163d1517169695505050505050565b73ffffffffffffffffffffffffffffffffffffffff811681146111f657600080fd5b50565b8035611204816111d4565b919050565b60008083601f84011261121b57600080fd5b50813567ffffffffffffffff81111561123357600080fd5b60208301915083602082850101111561124b57600080fd5b9250929050565b60008060008060006080868803121561126a57600080fd5b8535611275816111d4565b94506020860135611285816111d4565b935060408601359250606086013567ffffffffffffffff8111156112a857600080fd5b6112b488828901611209565b969995985093965092949392505050565b6000602082840312156112d757600080fd5b81356112e2816111d4565b9392505050565b80357fffffffff000000000000000000000000000000000000000000000000000000008116811461120457600080fd5b6000806000806060858703121561132f57600080fd5b843561133a816111d4565b9350611348602086016112e9565b9250604085013567ffffffffffffffff81111561136457600080fd5b61137087828801611209565b95989497509550505050565b60008083601f84011261138e57600080fd5b50813567ffffffffffffffff8111156113a657600080fd5b6020830191508360208260051b850101111561124b57600080fd5b600080600080600080606087890312156113da57600080fd5b863567ffffffffffffffff808211156113f257600080fd5b6113fe8a838b0161137c565b9098509650602089013591508082111561141757600080fd5b6114238a838b0161137c565b9096509450604089013591508082111561143c57600080fd5b5061144989828a01611209565b979a9699509497509295939492505050565b60008060006060848603121561147057600080fd5b833561147b816111d4565b9250602084013561148b816111d4565b929592945050506040919091013590565b6000806000806000806000806000806101208b8d0312156114bc57600080fd5b8a356114c7816111d4565b995060208b0135985060408b0135975060608b013560ff811681146114eb57600080fd5b965060808b0135955060a08b0135945061150760c08c016112e9565b935061151560e08c016111f9565b92506101008b013567ffffffffffffffff81111561153257600080fd5b61153e8d828e01611209565b915080935050809150509295989b9194979a5092959850565b6000815160005b81811015611578576020818501810151868301520161155e565b50600093019283525090919050565b600061159c6115968386611557565b84611557565b949350505050565b828482376000838201600081526110a88185611557565b7f4e487b7100000000000000000000000000000000000000000000000000000000600052603260045260246000fd5b600073ffffffffffffffffffffffffffffffffffffffff808816835280871660208401525084604083015260806060830152826080830152828460a0840137600060a0848401015260a07fffffffffffffffffffffffffffffffffffffffffffffffffffffffffffffffe0601f85011683010190509695505050505050565b7f4e487b7100000000000000000000000000000000000000000000000000000000600052604160045260246000fd5b6000806000606084860312156116ad57600080fd5b83356116b8816111d4565b92506116c6602085016112e9565b9150604084013567ffffffffffffffff808211156116e357600080fd5b818601915086601f8301126116f757600080fd5b81358181111561170957611709611669565b604051601f82017fffffffffffffffffffffffffffffffffffffffffffffffffffffffffffffffe0908116603f0116810190838211818310171561174f5761174f611669565b8160405282815289602084870101111561176857600080fd5b8260208601602083013760006020848301015280955050505050509250925092565b7fffffffff0000000000000000000000000000000000000000000000000000000083168152600061159c6004830184611557565b6000610e288284611557565b6000602082840312156117dc57600080fd5b815180151581146112e257600080fdfea164736f6c6343000811000a",
    "linkReferences": {}
  },
  "methodIdentifiers": {
    "authority()": "bf7e214f",
    "depositERC20WithCommand(address,uint256,uint256,uint8,bytes32,bytes32,bytes4,address,bytes)": "efedad0f",
    "depositERC721MultiWithCommand(uint256[],address[],bytes)": "aeb21ec6",
    "depositNativeTokenWithCommand(address,bytes4,bytes)": "8cfd441b",
    "kill()": "41c0e1b5",
    "onERC721Received(address,address,uint256,bytes)": "150b7a02",
    "original()": "46c715fa",
    "updateAuthority(address)": "3c716e08",
    "vault()": "fbfa77cf",
    "whitelistAddress(address)": "41566585",
    "withdrawTo(address,address,uint256)": "c3b35a7e"
  },
  "id": 1
}