{
  "abi": [
    {
      "inputs": [],
      "name": "Create2__DeploymentFailed",
      "type": "error"
    },
    {
      "inputs": [],
      "name": "Create2__InsufficientBalance",
      "type": "error"
    },
    {
      "inputs": [],
      "name": "Create2__ZeroLengthByteCode",
      "type": "error"
    },
    {
      "anonymous": false,
      "inputs": [
        {
          "indexed": true,
          "internalType": "address",
          "name": "instance",
          "type": "address"
        },
        {
          "indexed": true,
          "internalType": "bytes32",
          "name": "salt",
          "type": "bytes32"
        },
        {
          "indexed": true,
          "internalType": "bytes32",
          "name": "bytecodeHash",
          "type": "bytes32"
        },
        {
          "indexed": false,
          "internalType": "string",
          "name": "factory",
          "type": "string"
        }
      ],
      "name": "Deployed",
      "type": "event"
    },
    {
      "inputs": [
        {
          "internalType": "uint256",
          "name": "amount_",
          "type": "uint256"
        },
        {
          "internalType": "bytes32",
          "name": "salt_",
          "type": "bytes32"
        },
        {
          "internalType": "bytes",
          "name": "bytecode_",
          "type": "bytes"
        }
      ],
      "name": "deploy",
      "outputs": [],
      "stateMutability": "nonpayable",
      "type": "function"
    },
    {
      "inputs": [
        {
          "internalType": "bytes32",
          "name": "salt_",
          "type": "bytes32"
        },
        {
          "internalType": "bytes32",
          "name": "bytecodeHash_",
          "type": "bytes32"
        }
      ],
      "name": "instanceOf",
      "outputs": [
        {
          "internalType": "address",
          "name": "instance",
          "type": "address"
        },
        {
          "internalType": "bool",
          "name": "isDeployed",
          "type": "bool"
        }
      ],
      "stateMutability": "view",
      "type": "function"
    }
  ],
  "bytecode": {
    "object": "0x608060405234801561001057600080fd5b5061042a806100206000396000f3fe608060405234801561001057600080fd5b50600436106100365760003560e01c806366cfa0571461003b578063edcd56ed14610050575b600080fd5b61004e61004936600461030f565b610093565b005b61006361005e36600461038f565b6100da565b6040805173ffffffffffffffffffffffffffffffffffffffff909316835290151560208301520160405180910390f35b6100d4848484848080601f01602080910402602001604051908101604052809392919081815260200183838082843760009201919091525061018692505050565b50505050565b6000806101638484604080517fff000000000000000000000000000000000000000000000000000000000000006020808301919091523060601b7fffffffffffffffffffffffffffffffffffffffff0000000000000000000000001660218301526035820194909452605580820193909352815180820390930183526075019052805191012090565b9473ffffffffffffffffffffffffffffffffffffffff86163b1515945092505050565b6000610193848484610237565b90508073ffffffffffffffffffffffffffffffffffffffff163f838273ffffffffffffffffffffffffffffffffffffffff167f82471448afe2356524b15e64e9baaa819fba9008481ce17e1c78c3bf87fc22b560405180604001604052600f8152806020017f437265617465324465706c6f796572000000000000000000000000000000000081525060405161022991906103b1565b60405180910390a450505050565b60008084471015610274576040517f99be5c9500000000000000000000000000000000000000000000000000000000815260040160405180910390fd5b82516000036102af576040517f0233950600000000000000000000000000000000000000000000000000000000815260040160405180910390fd5b8383516020850187f5905073ffffffffffffffffffffffffffffffffffffffff8116610307576040517f4294884500000000000000000000000000000000000000000000000000000000815260040160405180910390fd5b949350505050565b6000806000806060858703121561032557600080fd5b8435935060208501359250604085013567ffffffffffffffff8082111561034b57600080fd5b818701915087601f83011261035f57600080fd5b81358181111561036e57600080fd5b88602082850101111561038057600080fd5b95989497505060200194505050565b600080604083850312156103a257600080fd5b50508035926020909101359150565b600060208083528351808285015260005b818110156103de578581018301518582016040015282016103c2565b5060006040828601015260407fffffffffffffffffffffffffffffffffffffffffffffffffffffffffffffffe0601f830116850101925050509291505056fea164736f6c6343000811000a",
    "linkReferences": {}
  },
  "methodIdentifiers": {
    "deploy(uint256,bytes32,bytes)": "66cfa057",
    "instanceOf(bytes32,bytes32)": "edcd56ed"
  },
  "id": 1
}