{
  "abi": [
    {
      "inputs": [],
      "name": "Base__AlreadySet",
      "type": "error"
    },
    {
      "inputs": [],
      "name": "Base__Unauthorized",
      "type": "error"
    },
    {
      "inputs": [],
      "name": "ERC1967UpgradeUpgradeable__DelegateCallToNonContract",
      "type": "error"
    },
    {
      "inputs": [],
      "name": "ERC1967UpgradeUpgradeable__ExecutionFailed",
      "type": "error"
    },
    {
      "inputs": [],
      "name": "ERC1967UpgradeUpgradeable__ImplementationIsNotContract",
      "type": "error"
    },
    {
      "inputs": [],
      "name": "ERC1967UpgradeUpgradeable__ImplementationIsNotUUPS",
      "type": "error"
    },
    {
      "inputs": [],
      "name": "ERC1967UpgradeUpgradeable__UnsupportedProxiableUUID",
      "type": "error"
    },
    {
      "inputs": [],
      "name": "FundForwarder__ForwardFailed",
      "type": "error"
    },
    {
      "inputs": [],
      "name": "Initializable__AlreadyInitialized",
      "type": "error"
    },
    {
      "inputs": [],
      "name": "Initializable__NotInitializing",
      "type": "error"
    },
    {
      "inputs": [],
      "name": "ProxyCreator__DeploymentFailed",
      "type": "error"
    },
    {
      "inputs": [],
      "name": "ProxyCreator__InitializationFailed",
      "type": "error"
    },
    {
      "inputs": [],
      "name": "ReceiveGateFactory__AlreadyDeployed",
      "type": "error"
    },
    {
      "inputs": [],
      "name": "UUPSUpgradeable__OnlyActiveProxy",
      "type": "error"
    },
    {
      "inputs": [],
      "name": "UUPSUpgradeable__OnlyCall",
      "type": "error"
    },
    {
      "inputs": [],
      "name": "UUPSUpgradeable__OnlyDelegateCall",
      "type": "error"
    },
    {
      "anonymous": false,
      "inputs": [
        {
          "indexed": false,
          "internalType": "address",
          "name": "previousAdmin",
          "type": "address"
        },
        {
          "indexed": false,
          "internalType": "address",
          "name": "newAdmin",
          "type": "address"
        }
      ],
      "name": "AdminChanged",
      "type": "event"
    },
    {
      "anonymous": false,
      "inputs": [
        {
          "indexed": true,
          "internalType": "contract IAuthority",
          "name": "from",
          "type": "address"
        },
        {
          "indexed": true,
          "internalType": "contract IAuthority",
          "name": "to",
          "type": "address"
        }
      ],
      "name": "AuthorityUpdated",
      "type": "event"
    },
    {
      "anonymous": false,
      "inputs": [
        {
          "indexed": true,
          "internalType": "address",
          "name": "beacon",
          "type": "address"
        }
      ],
      "name": "BeaconUpgraded",
      "type": "event"
    },
    {
      "anonymous": false,
      "inputs": [
        {
          "indexed": true,
          "internalType": "address",
          "name": "instance",
          "type": "address"
        },
        {
          "indexed": true,
          "internalType": "bytes32",
          "name": "salt",
          "type": "bytes32"
        },
        {
          "indexed": true,
          "internalType": "bytes32",
          "name": "bytecodeHash",
          "type": "bytes32"
        },
        {
          "indexed": false,
          "internalType": "string",
          "name": "factory",
          "type": "string"
        }
      ],
      "name": "Deployed",
      "type": "event"
    },
    {
      "anonymous": false,
      "inputs": [
        {
          "indexed": true,
          "internalType": "address",
          "name": "from",
          "type": "address"
        },
        {
          "indexed": true,
          "internalType": "uint256",
          "name": "amount",
          "type": "uint256"
        }
      ],
      "name": "Forwarded",
      "type": "event"
    },
    {
      "anonymous": false,
      "inputs": [
        {
          "indexed": false,
          "internalType": "uint256",
          "name": "version",
          "type": "uint256"
        }
      ],
      "name": "Initialized",
      "type": "event"
    },
    {
      "anonymous": false,
      "inputs": [
        {
          "indexed": true,
          "internalType": "address",
          "name": "instance",
          "type": "address"
        },
        {
          "indexed": true,
          "internalType": "bytes32",
          "name": "salt",
          "type": "bytes32"
        }
      ],
      "name": "InstanceDeployed",
      "type": "event"
    },
    {
      "anonymous": false,
      "inputs": [],
      "name": "InstanceDestroyed",
      "type": "event"
    },
    {
      "anonymous": false,
      "inputs": [],
      "name": "InstanceReinited",
      "type": "event"
    },
    {
      "anonymous": false,
      "inputs": [
        {
          "indexed": true,
          "internalType": "address",
          "name": "implementation",
          "type": "address"
        }
      ],
      "name": "Upgraded",
      "type": "event"
    },
    {
      "inputs": [],
      "name": "VERSION",
      "outputs": [
        {
          "internalType": "bytes32",
          "name": "",
          "type": "bytes32"
        }
      ],
      "stateMutability": "view",
      "type": "function"
    },
    {
      "inputs": [],
      "name": "authority",
      "outputs": [
        {
          "internalType": "contract IAuthority",
          "name": "authority_",
          "type": "address"
        }
      ],
      "stateMutability": "view",
      "type": "function"
    },
    {
      "inputs": [
        {
          "internalType": "contract IReceiveGate",
          "name": "receiveGate_",
          "type": "address"
        },
        {
          "internalType": "address[]",
          "name": "tokens_",
          "type": "address[]"
        },
        {
          "internalType": "bool[]",
          "name": "statuses_",
          "type": "bool[]"
        }
      ],
      "name": "deploy",
      "outputs": [],
      "stateMutability": "nonpayable",
      "type": "function"
    },
    {
      "inputs": [],
      "name": "destroy",
      "outputs": [],
      "stateMutability": "nonpayable",
      "type": "function"
    },
    {
      "inputs": [
        {
          "internalType": "contract IAuthority",
          "name": "authority_",
          "type": "address"
        },
        {
          "internalType": "contract ITreasury",
          "name": "treasury_",
          "type": "address"
        }
      ],
      "name": "initialize",
      "outputs": [],
      "stateMutability": "nonpayable",
      "type": "function"
    },
    {
      "inputs": [],
      "name": "instance",
      "outputs": [
        {
          "internalType": "contract IKillable",
          "name": "",
          "type": "address"
        }
      ],
      "stateMutability": "view",
      "type": "function"
    },
    {
      "inputs": [],
      "name": "proxiableUUID",
      "outputs": [
        {
          "internalType": "bytes32",
          "name": "",
          "type": "bytes32"
        }
      ],
      "stateMutability": "view",
      "type": "function"
    },
    {
      "inputs": [
        {
          "internalType": "contract IReceiveGate",
          "name": "receiveGate_",
          "type": "address"
        },
        {
          "internalType": "address[]",
          "name": "tokens_",
          "type": "address[]"
        },
        {
          "internalType": "bool[]",
          "name": "statuses_",
          "type": "bool[]"
        }
      ],
      "name": "reinit",
      "outputs": [],
      "stateMutability": "nonpayable",
      "type": "function"
    },
    {
      "inputs": [],
      "name": "salt",
      "outputs": [
        {
          "internalType": "bytes32",
          "name": "",
          "type": "bytes32"
        }
      ],
      "stateMutability": "view",
      "type": "function"
    },
    {
      "inputs": [
        {
          "internalType": "contract IAuthority",
          "name": "authority_",
          "type": "address"
        }
      ],
      "name": "updateAuthority",
      "outputs": [],
      "stateMutability": "nonpayable",
      "type": "function"
    },
    {
      "inputs": [
        {
          "internalType": "bytes32",
          "name": "salt_",
          "type": "bytes32"
        }
      ],
      "name": "updateSalt",
      "outputs": [],
      "stateMutability": "nonpayable",
      "type": "function"
    },
    {
      "inputs": [
        {
          "internalType": "address",
          "name": "newImplementation",
          "type": "address"
        }
      ],
      "name": "upgradeTo",
      "outputs": [],
      "stateMutability": "nonpayable",
      "type": "function"
    },
    {
      "inputs": [
        {
          "internalType": "address",
          "name": "newImplementation",
          "type": "address"
        },
        {
          "internalType": "bytes",
          "name": "data",
          "type": "bytes"
        }
      ],
      "name": "upgradeToAndCall",
      "outputs": [],
      "stateMutability": "payable",
      "type": "function"
    },
    {
      "inputs": [],
      "name": "vault",
      "outputs": [
        {
          "internalType": "address",
          "name": "",
          "type": "address"
        }
      ],
      "stateMutability": "view",
      "type": "function"
    },
    {
      "stateMutability": "payable",
      "type": "receive"
    }
  ],
  "bytecode": {
    "object": "0x60a06040523060805234801561001457600080fd5b5060805161359361004c6000396000818161040701528181610462015281816109400152818161099b0152610a9401526135936000f3fe608060405260043610620000f35760003560e01c8063814019571162000089578063bf7e214f1162000060578063bf7e214f146200035a578063bfa0b1331462000371578063fbfa77cf146200038a578063ffa1ad7414620003ba57600080fd5b80638140195714620002f857806383197ef0146200031d5780639aacec3c146200033557600080fd5b806345f31ca611620000ca57806345f31ca61462000270578063485cc95514620002955780634f1ef28614620002ba57806352d1902d14620002d157600080fd5b8063022ec09514620001cb5780633659cfe614620002245780633c716e08146200024b57600080fd5b36620001c65761012e5460405160009173ffffffffffffffffffffffffffffffffffffffff169034908381818185875af1925050503d806000811462000156576040519150601f19603f3d011682016040523d82523d6000602084013e6200015b565b606091505b505090508062000197576040517f68ef1d7400000000000000000000000000000000000000000000000000000000815260040160405180910390fd5b604051349033907f6f1deddfc28100c291fae8f1064e4a91e844f0841993bb8fba9a913c3b801d8090600090a3005b600080fd5b348015620001d857600080fd5b5060ca54620001fa9073ffffffffffffffffffffffffffffffffffffffff1681565b60405173ffffffffffffffffffffffffffffffffffffffff90911681526020015b60405180910390f35b3480156200023157600080fd5b50620002496200024336600462001801565b620003f0565b005b3480156200025857600080fd5b50620002496200026a36600462001801565b62000550565b3480156200027d57600080fd5b50620002496200028f36600462001870565b6200065a565b348015620002a257600080fd5b5062000249620002b4366004620018fc565b62000832565b62000249620002cb36600462001969565b62000929565b348015620002de57600080fd5b50620002e962000a7a565b6040519081526020016200021b565b3480156200030557600080fd5b50620002496200031736600462001870565b62000b11565b3480156200032a57600080fd5b506200024962000c65565b3480156200034257600080fd5b50620002496200035436600462001a57565b62000d42565b3480156200036757600080fd5b50609854620001fa565b3480156200037e57600080fd5b50620002e96101605481565b3480156200039757600080fd5b5061012e54620001fa9073ffffffffffffffffffffffffffffffffffffffff1681565b348015620003c757600080fd5b50620002e97f0df851f8f5e94c771ff6567b1f5f65fcd056fec283cd3baf65f24b213cdbaca681565b73ffffffffffffffffffffffffffffffffffffffff7f000000000000000000000000000000000000000000000000000000000000000016300362000460576040517ff96c3be000000000000000000000000000000000000000000000000000000000815260040160405180910390fd5b7f000000000000000000000000000000000000000000000000000000000000000073ffffffffffffffffffffffffffffffffffffffff16620004d67f360894a13ba1a3210667c828492db98dca3e2076cc3735a920a3ca505d382bbc5473ffffffffffffffffffffffffffffffffffffffff1690565b73ffffffffffffffffffffffffffffffffffffffff161462000524576040517f7860576200000000000000000000000000000000000000000000000000000000815260040160405180910390fd5b6200052f8162000d7a565b604080516000808252602082019092526200054d9183919062000da7565b50565b7f97667070c54ef182b0f5858b034beac1b6f3089aa2d3188bb1e8929f4fa9b9296200057d813362000f09565b60006200058960985490565b90508273ffffffffffffffffffffffffffffffffffffffff168173ffffffffffffffffffffffffffffffffffffffff1603620005f1576040517f4ef9984200000000000000000000000000000000000000000000000000000000815260040160405180910390fd5b620005fb83609855565b8273ffffffffffffffffffffffffffffffffffffffff168173ffffffffffffffffffffffffffffffffffffffff167fa3396fd7f6e0a21b50e5089d2da70d5ac0a3bbbd1f617a93f134b7638998019860405160405180910390a3505050565b7f97667070c54ef182b0f5858b034beac1b6f3089aa2d3188bb1e8929f4fa9b92962000687813362000f09565b60006200069360985490565b61012e546040517fffffffffffffffffffffffffffffffffffffffff000000000000000000000000606084811b8216602084015283811b8216603484015230901b1660488201527f0df851f8f5e94c771ff6567b1f5f65fcd056fec283cd3baf65f24b213cdbaca6605c82015291925073ffffffffffffffffffffffffffffffffffffffff1690600090607c01604051602081830303815290604052805190602001209050620007d7600082604051806020016200075190620017d0565b6020820181038252601f19601f820116604052508c87878e8e8e8e60405160200162000784979695949392919062001a80565b604080517fffffffffffffffffffffffffffffffffffffffffffffffffffffffffffffffe081840301815290829052620007c2929160200162001b6b565b60405160208183030381529060405262000fdf565b620007e28161016055565b60ca54604051829173ffffffffffffffffffffffffffffffffffffffff16907f550beaf2eeba510eb33a6248a94d6bff07e1d03c9a0c53b1ee1b3649eb792a5b90600090a3505050505050505050565b60015460005460029091148015919082906200084c575080155b80620008635750806001148015620008635750303b155b6200089a576040517f2e8adaaa00000000000000000000000000000000000000000000000000000000815260040160405180910390fd5b60016000558115620008ac5760026001555b620008b783620010ab565b620008e3847fdfbefbf47cfe66b701d8cfdbce1de81c821590819cb07e71cb01b6602fb0ee27620010f3565b8115620009235760018080556040519081527fbe9b076dc5b65990cca9dd9d7366682482e7817a6f6bc7f4faf4dc32af497f329060200160405180910390a15b50505050565b73ffffffffffffffffffffffffffffffffffffffff7f000000000000000000000000000000000000000000000000000000000000000016300362000999576040517ff96c3be000000000000000000000000000000000000000000000000000000000815260040160405180910390fd5b7f000000000000000000000000000000000000000000000000000000000000000073ffffffffffffffffffffffffffffffffffffffff1662000a0f7f360894a13ba1a3210667c828492db98dca3e2076cc3735a920a3ca505d382bbc5473ffffffffffffffffffffffffffffffffffffffff1690565b73ffffffffffffffffffffffffffffffffffffffff161462000a5d576040517f7860576200000000000000000000000000000000000000000000000000000000815260040160405180910390fd5b62000a688262000d7a565b62000a768282600162000da7565b5050565b60003073ffffffffffffffffffffffffffffffffffffffff7f0000000000000000000000000000000000000000000000000000000000000000161462000aec576040517ff2e149be00000000000000000000000000000000000000000000000000000000815260040160405180910390fd5b507f360894a13ba1a3210667c828492db98dca3e2076cc3735a920a3ca505d382bbc90565b7f97667070c54ef182b0f5858b034beac1b6f3089aa2d3188bb1e8929f4fa9b92962000b3e813362000f09565b60ca5473ffffffffffffffffffffffffffffffffffffffff16801580159062000b7d575073ffffffffffffffffffffffffffffffffffffffff81163b15155b1562000bb5576040517fca9ddad000000000000000000000000000000000000000000000000000000000815260040160405180910390fd5b600062000bc160985490565b61012e546101605460405192935073ffffffffffffffffffffffffffffffffffffffff9091169162000c319160009162000bfe60208201620017d0565b6020820181038252601f19601f820116604052508c86868e8e8e8e60405160200162000784979695949392919062001a80565b6040517f45db7aa5335b3a902ce38730c91bb0309d0a4d5e5334f56cd1db215eb5d7ea2e90600090a1505050505050505050565b7f97667070c54ef182b0f5858b034beac1b6f3089aa2d3188bb1e8929f4fa9b92962000c92813362000f09565b60ca60009054906101000a900473ffffffffffffffffffffffffffffffffffffffff1673ffffffffffffffffffffffffffffffffffffffff166341c0e1b56040518163ffffffff1660e01b8152600401600060405180830381600087803b15801562000cfd57600080fd5b505af115801562000d12573d6000803e3d6000fd5b50506040517fb8f960c554393bf23f15b73d2e435274e1d464d063a075f64d30e6e013b146d8925060009150a150565b7f97667070c54ef182b0f5858b034beac1b6f3089aa2d3188bb1e8929f4fa9b92962000d6f813362000f09565b62000a768261016055565b7f189ab7a9244df0848122154315af71fe140f3db0fe014031783b0946b8c9d2e362000a76813362000f09565b7f4910fdfa16fed3260ed0e7147f7cc6da11a60208b5b9406d12a635614ffd91435460ff161562000de25762000ddd836200113c565b505050565b8273ffffffffffffffffffffffffffffffffffffffff166352d1902d6040518163ffffffff1660e01b8152600401602060405180830381865afa92505050801562000e6a575060408051601f3d9081017fffffffffffffffffffffffffffffffffffffffffffffffffffffffffffffffe016820190925262000e679181019062001b9e565b60015b62000ea1576040517f38622d4300000000000000000000000000000000000000000000000000000000815260040160405180910390fd5b7f360894a13ba1a3210667c828492db98dca3e2076cc3735a920a3ca505d382bbc811462000efb576040517f14edfa8000000000000000000000000000000000000000000000000000000000815260040160405180910390fd5b5062000ddd838383620011f1565b6098546040517f91d148540000000000000000000000000000000000000000000000000000000081526004810184905273ffffffffffffffffffffffffffffffffffffffff838116602483015291909116906391d1485490604401602060405180830381865afa15801562000f82573d6000803e3d6000fd5b505050506040513d601f19601f8201168201806040525081019062000fa8919062001bb8565b62000a76576040517f5d53684100000000000000000000000000000000000000000000000000000000815260040160405180910390fd5b600062000fee8383866200121c565b60ca80547fffffffffffffffffffffffff00000000000000000000000000000000000000001673ffffffffffffffffffffffffffffffffffffffff8316908117909155604080518082018252601181527f50726f78796c657373557067726164657200000000000000000000000000000060208201529051929350813f928692917f82471448afe2356524b15e64e9baaa819fba9008481ce17e1c78c3bf87fc22b5916200109d919062001bd8565b60405180910390a450505050565b600154600214620010e8576040517f8b4188b300000000000000000000000000000000000000000000000000000000815260040160405180910390fd5b6200054d8162001397565b60015460021462001130576040517f8b4188b300000000000000000000000000000000000000000000000000000000815260040160405180910390fd5b62000a7682826200141c565b73ffffffffffffffffffffffffffffffffffffffff81163b6200118b576040517f2390ec9c00000000000000000000000000000000000000000000000000000000815260040160405180910390fd5b7f360894a13ba1a3210667c828492db98dca3e2076cc3735a920a3ca505d382bbc80547fffffffffffffffffffffffff00000000000000000000000000000000000000001673ffffffffffffffffffffffffffffffffffffffff92909216919091179055565b620011fc83620014e5565b6000825111806200120a5750805b1562000ddd5762000923838362001534565b6000806040518060400160405280601781526020017f630000000980600e6000396000f3363d8037363d34f0ff00000000000000000081525090506000858251602084016000f5905073ffffffffffffffffffffffffffffffffffffffff8116620012b3576040517f6ca662d800000000000000000000000000000000000000000000000000000000815260040160405180910390fd5b620012be866200160d565b925060008173ffffffffffffffffffffffffffffffffffffffff168587604051620012ea919062001c2b565b60006040518083038185875af1925050503d806000811462001329576040519150601f19603f3d011682016040523d82523d6000602084013e6200132e565b606091505b5050905080158062001355575073ffffffffffffffffffffffffffffffffffffffff84163b155b156200138d576040517f1b55715a00000000000000000000000000000000000000000000000000000000815260040160405180910390fd5b5050509392505050565b600154600214620013d4576040517f8b4188b300000000000000000000000000000000000000000000000000000000815260040160405180910390fd5b61012e80547fffffffffffffffffffffffff00000000000000000000000000000000000000001673ffffffffffffffffffffffffffffffffffffffff92909216919091179055565b60015460021462001459576040517f8b4188b300000000000000000000000000000000000000000000000000000000815260040160405180910390fd5b6040517f841fb5030000000000000000000000000000000000000000000000000000000081526004810182905273ffffffffffffffffffffffffffffffffffffffff83169063841fb50390602401600060405180830381600087803b158015620014c257600080fd5b505af1158015620014d7573d6000803e3d6000fd5b5050505062000a7682609855565b620014f0816200113c565b60405173ffffffffffffffffffffffffffffffffffffffff8216907fbc7cd75a20ee27fd9adebab32041f755214dbc6bffa90cc0225b39da2e5c2d3b90600090a250565b606073ffffffffffffffffffffffffffffffffffffffff83163b62001585576040517f233b521600000000000000000000000000000000000000000000000000000000815260040160405180910390fd5b6000808473ffffffffffffffffffffffffffffffffffffffff1684604051620015af919062001c2b565b600060405180830381855af49150503d8060008114620015ec576040519150601f19603f3d011682016040523d82523d6000602084013e620015f1565b606091505b50915091506200160282826200177d565b925050505b92915050565b604080518082018252601781527f630000000980600e6000396000f3363d8037363d34f0ff00000000000000000060209182015290517fff00000000000000000000000000000000000000000000000000000000000000918101919091527fffffffffffffffffffffffffffffffffffffffff0000000000000000000000003060601b166021820152603581018290527f68afe50fe78ae96feb6ec11f21f31fdd467c9fcc7add426282cfa3913daf04e960558201526000908190620016ea906075015b6040516020818303038152906040528051906020012090565b6040517fd69400000000000000000000000000000000000000000000000000000000000060208201527fffffffffffffffffffffffffffffffffffffffff000000000000000000000000606083901b1660228201527f010000000000000000000000000000000000000000000000000000000000000060368201529091506200177690603701620016d1565b9392505050565b606082156200178e57508062001607565b8151156200179e57815182602001fd5b6040517f59636df400000000000000000000000000000000000000000000000000000000815260040160405180910390fd5b61193d8062001c4a83390190565b73ffffffffffffffffffffffffffffffffffffffff811681146200054d57600080fd5b6000602082840312156200181457600080fd5b81356200177681620017de565b60008083601f8401126200183457600080fd5b50813567ffffffffffffffff8111156200184d57600080fd5b6020830191508360208260051b85010111156200186957600080fd5b9250929050565b6000806000806000606086880312156200188957600080fd5b85356200189681620017de565b9450602086013567ffffffffffffffff80821115620018b457600080fd5b620018c289838a0162001821565b90965094506040880135915080821115620018dc57600080fd5b50620018eb8882890162001821565b969995985093965092949392505050565b600080604083850312156200191057600080fd5b82356200191d81620017de565b915060208301356200192f81620017de565b809150509250929050565b7f4e487b7100000000000000000000000000000000000000000000000000000000600052604160045260246000fd5b600080604083850312156200197d57600080fd5b82356200198a81620017de565b9150602083013567ffffffffffffffff80821115620019a857600080fd5b818501915085601f830112620019bd57600080fd5b813581811115620019d257620019d26200193a565b604051601f82017fffffffffffffffffffffffffffffffffffffffffffffffffffffffffffffffe0908116603f0116810190838211818310171562001a1b5762001a1b6200193a565b8160405282815288602084870101111562001a3557600080fd5b8260208601602083013760006020848301015280955050505050509250929050565b60006020828403121562001a6a57600080fd5b5035919050565b80151581146200054d57600080fd5b600060a0820173ffffffffffffffffffffffffffffffffffffffff808b1684526020818b1681860152818a16604086015260a060608601528288845260c08601905089935060005b8981101562001af357843562001ade81620017de565b84168252938201939082019060010162001ac8565b5085810360808701528681528101925086915060005b8681101562001b3457823562001b1f8162001a71565b15158452928101929181019160010162001b09565b50919b9a5050505050505050505050565b60005b8381101562001b6257818101518382015260200162001b48565b50506000910152565b6000835162001b7f81846020880162001b45565b83519083019062001b9581836020880162001b45565b01949350505050565b60006020828403121562001bb157600080fd5b5051919050565b60006020828403121562001bcb57600080fd5b8151620017768162001a71565b602081526000825180602084015262001bf981604085016020870162001b45565b601f017fffffffffffffffffffffffffffffffffffffffffffffffffffffffffffffffe0169190910160400192915050565b6000825162001c3f81846020870162001b45565b919091019291505056fe60c06040526040516200193d3803806200193d8339810160408190526200002691620000d2565b60405163841fb50360e01b815260006004820181905283918391906001600160a01b0383169063841fb50390602401600060405180830381600087803b1580156200007057600080fd5b505af115801562000085573d6000803e3d6000fd5b505050506200009a82620000b460201b60201c565b50506001600160a01b031660805250503060a05262000111565b600055565b6001600160a01b0381168114620000cf57600080fd5b50565b60008060408385031215620000e657600080fd5b8251620000f381620000b9565b60208401519092506200010681620000b9565b809150509250929050565b60805160a0516117f962000144600039600061027201526000818160c901528181610353015261061a01526117f96000f3fe6080604052600436106100c05760003560e01c80638cfd441b11610074578063c3b35a7e1161004e578063c3b35a7e14610301578063efedad0f14610321578063fbfa77cf1461034157600080fd5b80638cfd441b146102b9578063aeb21ec6146102cc578063bf7e214f146102ec57600080fd5b806341566585116100a5578063415665851461022b57806341c0e1b51461024b57806346c715fa1461026057600080fd5b8063150b7a02146101b35780633c716e081461020957600080fd5b366101ae5760007f000000000000000000000000000000000000000000000000000000000000000073ffffffffffffffffffffffffffffffffffffffff163460405160006040518083038185875af1925050503d806000811461013f576040519150601f19603f3d011682016040523d82523d6000602084013e610144565b606091505b505090508061017f576040517f68ef1d7400000000000000000000000000000000000000000000000000000000815260040160405180910390fd5b604051349033907f6f1deddfc28100c291fae8f1064e4a91e844f0841993bb8fba9a913c3b801d8090600090a3005b600080fd5b3480156101bf57600080fd5b506101d36101ce366004611252565b610375565b6040517fffffffff0000000000000000000000000000000000000000000000000000000090911681526020015b60405180910390f35b34801561021557600080fd5b506102296102243660046112c5565b610498565b005b34801561023757600080fd5b506102296102463660046112c5565b610580565b34801561025757600080fd5b506102296105ed565b34801561026c57600080fd5b506102947f000000000000000000000000000000000000000000000000000000000000000081565b60405173ffffffffffffffffffffffffffffffffffffffff9091168152602001610200565b6102296102c7366004611319565b610651565b3480156102d857600080fd5b506102296102e73660046113c1565b610745565b3480156102f857600080fd5b50600054610294565b34801561030d57600080fd5b5061022961031c36600461145b565b610821565b34801561032d57600080fd5b5061022961033c36600461149c565b610973565b34801561034d57600080fd5b506102947f000000000000000000000000000000000000000000000000000000000000000081565b6000806000806103858686610b23565b9250925092506103cc6103ab8473ffffffffffffffffffffffffffffffffffffffff1690565b600881901c60009081526001602081905260409091205460ff9092161b1690565b61041f576040517fde15033400000000000000000000000000000000000000000000000000000000815273ffffffffffffffffffffffffffffffffffffffff841660048201526024015b60405180910390fd5b604080513360208201526000818301528151808203830181526060820190925261046a918591859161045691869190608001611587565b604051602081830303815290604052610baf565b507f150b7a020000000000000000000000000000000000000000000000000000000098975050505050505050565b7f97667070c54ef182b0f5858b034beac1b6f3089aa2d3188bb1e8929f4fa9b9296104c38133610c90565b60005473ffffffffffffffffffffffffffffffffffffffff80841690821603610518576040517f4ef9984200000000000000000000000000000000000000000000000000000000815260040160405180910390fd5b61052183600055565b8273ffffffffffffffffffffffffffffffffffffffff168173ffffffffffffffffffffffffffffffffffffffff167fa3396fd7f6e0a21b50e5089d2da70d5ac0a3bbbd1f617a93f134b7638998019860405160405180910390a3505050565b7f97667070c54ef182b0f5858b034beac1b6f3089aa2d3188bb1e8929f4fa9b9296105ab8133610c90565b72ffffffffffffffffffffffffffffffffffffff600883901c166000908152600160208190526040909120805460ff85169290921b90911790555050565b5050565b7fdfbefbf47cfe66b701d8cfdbce1de81c821590819cb07e71cb01b6602fb0ee276106188133610c90565b7f000000000000000000000000000000000000000000000000000000000000000073ffffffffffffffffffffffffffffffffffffffff16ff5b610659610d62565b61067873ffffffffffffffffffffffffffffffffffffffff85166103ab565b6106c6576040517fde15033400000000000000000000000000000000000000000000000000000000815273ffffffffffffffffffffffffffffffffffffffff85166004820152602401610416565b61073f8484848460003460405160200161070292919073ffffffffffffffffffffffffffffffffffffffff929092168252602082015260400190565b604080517fffffffffffffffffffffffffffffffffffffffffffffffffffffffffffffffe0818403018152908290526104569392916020016115a4565b50505050565b61074d610d62565b843360005b828110156108165786868281811061076c5761076c6115bb565b905060200201602081019061078191906112c5565b73ffffffffffffffffffffffffffffffffffffffff1663b88d4fde83308c8c868181106107b0576107b06115bb565b9050602002013589896040518663ffffffff1660e01b81526004016107d99594939291906115ea565b600060405180830381600087803b1580156107f357600080fd5b505af1158015610807573d6000803e3d6000fd5b50505050806001019050610752565b505050505050505050565b61086173ffffffffffffffffffffffffffffffffffffffff84167f36372b0700000000000000000000000000000000000000000000000000000000610e0c565b1561087657610871838383610e31565b505050565b6108b673ffffffffffffffffffffffffffffffffffffffff84167f80ac58cd00000000000000000000000000000000000000000000000000000000610e0c565b1561094e576040517f42842e0e00000000000000000000000000000000000000000000000000000000815230600482015273ffffffffffffffffffffffffffffffffffffffff8381166024830152604482018390528416906342842e0e90606401600060405180830381600087803b15801561093157600080fd5b505af1158015610945573d6000803e3d6000fd5b50505050505050565b73ffffffffffffffffffffffffffffffffffffffff8316610871576108718282610e7c565b61097b610d62565b33428910156109b6576040517fd90aed6e00000000000000000000000000000000000000000000000000000000815260040160405180910390fd5b6109d573ffffffffffffffffffffffffffffffffffffffff85166103ab565b610a23576040517fde15033400000000000000000000000000000000000000000000000000000000815273ffffffffffffffffffffffffffffffffffffffff85166004820152602401610416565b6040517fd505accf00000000000000000000000000000000000000000000000000000000815273ffffffffffffffffffffffffffffffffffffffff8281166004830152306024830152604482018c9052606482018b905260ff8a16608483015260a4820189905260c482018890528c169063d505accf9060e401600060405180830381600087803b158015610ab757600080fd5b505af1158015610acb573d6000803e3d6000fd5b50505050610adb8b82308d610ec6565b610b16848685858f8f60405160200161070292919073ffffffffffffffffffffffffffffffffffffffff929092168252602082015260400190565b5050505050505050505050565b6000806060610b3484860186611698565b91945092509050610b5a73ffffffffffffffffffffffffffffffffffffffff84166103ab565b610ba8576040517fde15033400000000000000000000000000000000000000000000000000000000815273ffffffffffffffffffffffffffffffffffffffff84166004820152602401610416565b9250925092565b60008373ffffffffffffffffffffffffffffffffffffffff168383604051602001610bdb92919061178a565b604080517fffffffffffffffffffffffffffffffffffffffffffffffffffffffffffffffe081840301815290829052610c13916117be565b6000604051808303816000865af19150503d8060008114610c50576040519150601f19603f3d011682016040523d82523d6000602084013e610c55565b606091505b505090508061073f576040517fc646a70d00000000000000000000000000000000000000000000000000000000815260040160405180910390fd5b6000546040517f91d148540000000000000000000000000000000000000000000000000000000081526004810184905273ffffffffffffffffffffffffffffffffffffffff838116602483015291909116906391d1485490604401602060405180830381865afa158015610d08573d6000803e3d6000fd5b505050506040513d601f19601f82011682018060405250810190610d2c91906117ca565b6105e9576040517f5d53684100000000000000000000000000000000000000000000000000000000815260040160405180910390fd5b60005473ffffffffffffffffffffffffffffffffffffffff16635c975abb6040518163ffffffff1660e01b8152600401602060405180830381865afa158015610daf573d6000803e3d6000fd5b505050506040513d601f19601f82011682018060405250810190610dd391906117ca565b15610e0a576040517f94a75b5300000000000000000000000000000000000000000000000000000000815260040160405180910390fd5b565b6000610e1783610f12565b8015610e285750610e288383610f76565b90505b92915050565b610e3b82826110b2565b610e4683838361110a565b610871576040517f8650e6f000000000000000000000000000000000000000000000000000000000815260040160405180910390fd5b610e8682826110b2565b610e908282611162565b6105e9576040517f8650e6f000000000000000000000000000000000000000000000000000000000815260040160405180910390fd5b610ed082826110b2565b610edc84848484611175565b61073f576040517f8650e6f000000000000000000000000000000000000000000000000000000000815260040160405180910390fd5b6000610f3e827f01ffc9a700000000000000000000000000000000000000000000000000000000610f76565b8015610e2b5750610f6f827fffffffff00000000000000000000000000000000000000000000000000000000610f76565b1592915050565b604080517fffffffff00000000000000000000000000000000000000000000000000000000831660248083019190915282518083039091018152604490910182526020810180517bffffffffffffffffffffffffffffffffffffffffffffffffffffffff167f01ffc9a7000000000000000000000000000000000000000000000000000000001790529051600091908290819073ffffffffffffffffffffffffffffffffffffffff871690617530906110309086906117be565b6000604051808303818686fa925050503d806000811461106c576040519150601f19603f3d011682016040523d82523d6000602084013e611071565b606091505b509150915060208151101561108c5760009350505050610e2b565b8180156110a85750808060200190518101906110a891906117ca565b9695505050505050565b8015806110d3575073ffffffffffffffffffffffffffffffffffffffff8216155b156105e9576040517f8aa97e7d00000000000000000000000000000000000000000000000000000000815260040160405180910390fd5b60006040517fa9059cbb000000000000000000000000000000000000000000000000000000008152836004820152826024820152602060006044836000895af1600051600114601f3d11163d15171695945050505050565b600080600080600085875af19392505050565b60006040517f23b872dd0000000000000000000000000000000000000000000000000000000081528460048201528360248201528260448201526020600060648360008a5af1600051600114601f3d11163d1517169695505050505050565b73ffffffffffffffffffffffffffffffffffffffff811681146111f657600080fd5b50565b8035611204816111d4565b919050565b60008083601f84011261121b57600080fd5b50813567ffffffffffffffff81111561123357600080fd5b60208301915083602082850101111561124b57600080fd5b9250929050565b60008060008060006080868803121561126a57600080fd5b8535611275816111d4565b94506020860135611285816111d4565b935060408601359250606086013567ffffffffffffffff8111156112a857600080fd5b6112b488828901611209565b969995985093965092949392505050565b6000602082840312156112d757600080fd5b81356112e2816111d4565b9392505050565b80357fffffffff000000000000000000000000000000000000000000000000000000008116811461120457600080fd5b6000806000806060858703121561132f57600080fd5b843561133a816111d4565b9350611348602086016112e9565b9250604085013567ffffffffffffffff81111561136457600080fd5b61137087828801611209565b95989497509550505050565b60008083601f84011261138e57600080fd5b50813567ffffffffffffffff8111156113a657600080fd5b6020830191508360208260051b850101111561124b57600080fd5b600080600080600080606087890312156113da57600080fd5b863567ffffffffffffffff808211156113f257600080fd5b6113fe8a838b0161137c565b9098509650602089013591508082111561141757600080fd5b6114238a838b0161137c565b9096509450604089013591508082111561143c57600080fd5b5061144989828a01611209565b979a9699509497509295939492505050565b60008060006060848603121561147057600080fd5b833561147b816111d4565b9250602084013561148b816111d4565b929592945050506040919091013590565b6000806000806000806000806000806101208b8d0312156114bc57600080fd5b8a356114c7816111d4565b995060208b0135985060408b0135975060608b013560ff811681146114eb57600080fd5b965060808b0135955060a08b0135945061150760c08c016112e9565b935061151560e08c016111f9565b92506101008b013567ffffffffffffffff81111561153257600080fd5b61153e8d828e01611209565b915080935050809150509295989b9194979a5092959850565b6000815160005b81811015611578576020818501810151868301520161155e565b50600093019283525090919050565b600061159c6115968386611557565b84611557565b949350505050565b828482376000838201600081526110a88185611557565b7f4e487b7100000000000000000000000000000000000000000000000000000000600052603260045260246000fd5b600073ffffffffffffffffffffffffffffffffffffffff808816835280871660208401525084604083015260806060830152826080830152828460a0840137600060a0848401015260a07fffffffffffffffffffffffffffffffffffffffffffffffffffffffffffffffe0601f85011683010190509695505050505050565b7f4e487b7100000000000000000000000000000000000000000000000000000000600052604160045260246000fd5b6000806000606084860312156116ad57600080fd5b83356116b8816111d4565b92506116c6602085016112e9565b9150604084013567ffffffffffffffff808211156116e357600080fd5b818601915086601f8301126116f757600080fd5b81358181111561170957611709611669565b604051601f82017fffffffffffffffffffffffffffffffffffffffffffffffffffffffffffffffe0908116603f0116810190838211818310171561174f5761174f611669565b8160405282815289602084870101111561176857600080fd5b8260208601602083013760006020848301015280955050505050509250925092565b7fffffffff0000000000000000000000000000000000000000000000000000000083168152600061159c6004830184611557565b6000610e288284611557565b6000602082840312156117dc57600080fd5b815180151581146112e257600080fdfea164736f6c6343000811000aa164736f6c6343000811000a",
    "linkReferences": {}
  },
  "methodIdentifiers": {
    "VERSION()": "ffa1ad74",
    "authority()": "bf7e214f",
    "deploy(address,address[],bool[])": "45f31ca6",
    "destroy()": "83197ef0",
    "initialize(address,address)": "485cc955",
    "instance()": "022ec095",
    "proxiableUUID()": "52d1902d",
    "reinit(address,address[],bool[])": "81401957",
    "salt()": "bfa0b133",
    "updateAuthority(address)": "3c716e08",
    "updateSalt(bytes32)": "9aacec3c",
    "upgradeTo(address)": "3659cfe6",
    "upgradeToAndCall(address,bytes)": "4f1ef286",
    "vault()": "fbfa77cf"
  },
  "id": 2
}