{
  "abi": [
    {
      "inputs": [],
      "name": "Base__AlreadySet",
      "type": "error"
    },
    {
      "inputs": [],
      "name": "Base__Blacklisted",
      "type": "error"
    },
    {
      "inputs": [],
      "name": "Base__Paused",
      "type": "error"
    },
    {
      "inputs": [],
      "name": "Base__Unauthorized",
      "type": "error"
    },
    {
      "inputs": [],
      "name": "ERC1967UpgradeUpgradeable__DelegateCallToNonContract",
      "type": "error"
    },
    {
      "inputs": [],
      "name": "ERC1967UpgradeUpgradeable__ExecutionFailed",
      "type": "error"
    },
    {
      "inputs": [],
      "name": "ERC1967UpgradeUpgradeable__ImplementationIsNotContract",
      "type": "error"
    },
    {
      "inputs": [],
      "name": "ERC1967UpgradeUpgradeable__ImplementationIsNotUUPS",
      "type": "error"
    },
    {
      "inputs": [],
      "name": "ERC1967UpgradeUpgradeable__UnsupportedProxiableUUID",
      "type": "error"
    },
    {
      "inputs": [],
      "name": "FundForwarder__ForwardFailed",
      "type": "error"
    },
    {
      "inputs": [],
      "name": "Initializable__AlreadyInitialized",
      "type": "error"
    },
    {
      "inputs": [],
      "name": "Initializable__NotInitializing",
      "type": "error"
    },
    {
      "inputs": [],
      "name": "MultiDelegatecall__ExecutionFailed",
      "type": "error"
    },
    {
      "inputs": [],
      "name": "MultiDelegatecall__OnlyDelegate",
      "type": "error"
    },
    {
      "inputs": [],
      "name": "ProxyChecker__ProxyUnallowed",
      "type": "error"
    },
    {
      "inputs": [],
      "name": "Signable__InvalidSignature",
      "type": "error"
    },
    {
      "inputs": [],
      "name": "UUPSUpgradeable__OnlyActiveProxy",
      "type": "error"
    },
    {
      "inputs": [],
      "name": "UUPSUpgradeable__OnlyCall",
      "type": "error"
    },
    {
      "inputs": [],
      "name": "UUPSUpgradeable__OnlyDelegateCall",
      "type": "error"
    },
    {
      "inputs": [],
      "name": "VoucherCreator__AlreadyRedeemed",
      "type": "error"
    },
    {
      "inputs": [],
      "name": "VoucherCreator__CommitRevealNotEnabled",
      "type": "error"
    },
    {
      "inputs": [],
      "name": "VoucherCreator__Expired",
      "type": "error"
    },
    {
      "inputs": [],
      "name": "VoucherCreator__ExpiredOrNotYetStarted",
      "type": "error"
    },
    {
      "inputs": [],
      "name": "VoucherCreator__InvalidArguments",
      "type": "error"
    },
    {
      "inputs": [],
      "name": "VoucherCreator__InvalidProof",
      "type": "error"
    },
    {
      "inputs": [],
      "name": "VoucherCreator__InvalidReveal",
      "type": "error"
    },
    {
      "inputs": [],
      "name": "VoucherCreator__InvalidSignature",
      "type": "error"
    },
    {
      "inputs": [],
      "name": "VoucherCreator__LengthMismatch",
      "type": "error"
    },
    {
      "inputs": [],
      "name": "VoucherCreator__SignatureVerificationNotEnabled",
      "type": "error"
    },
    {
      "inputs": [],
      "name": "VoucherCreator__UnsupportedToken",
      "type": "error"
    },
    {
      "inputs": [],
      "name": "VoucherCreator__XOREncryptionNotEnabled",
      "type": "error"
    },
    {
      "anonymous": false,
      "inputs": [
        {
          "indexed": false,
          "internalType": "address",
          "name": "previousAdmin",
          "type": "address"
        },
        {
          "indexed": false,
          "internalType": "address",
          "name": "newAdmin",
          "type": "address"
        }
      ],
      "name": "AdminChanged",
      "type": "event"
    },
    {
      "anonymous": false,
      "inputs": [
        {
          "indexed": true,
          "internalType": "contract IAuthority",
          "name": "from",
          "type": "address"
        },
        {
          "indexed": true,
          "internalType": "contract IAuthority",
          "name": "to",
          "type": "address"
        }
      ],
      "name": "AuthorityUpdated",
      "type": "event"
    },
    {
      "anonymous": false,
      "inputs": [
        {
          "indexed": true,
          "internalType": "address",
          "name": "beacon",
          "type": "address"
        }
      ],
      "name": "BeaconUpgraded",
      "type": "event"
    },
    {
      "anonymous": false,
      "inputs": [
        {
          "indexed": true,
          "internalType": "address",
          "name": "user",
          "type": "address"
        },
        {
          "indexed": true,
          "internalType": "bytes32",
          "name": "commitment",
          "type": "bytes32"
        }
      ],
      "name": "Commited",
      "type": "event"
    },
    {
      "anonymous": false,
      "inputs": [
        {
          "indexed": true,
          "internalType": "address",
          "name": "from",
          "type": "address"
        },
        {
          "indexed": true,
          "internalType": "uint256",
          "name": "amount",
          "type": "uint256"
        }
      ],
      "name": "Forwarded",
      "type": "event"
    },
    {
      "anonymous": false,
      "inputs": [
        {
          "indexed": false,
          "internalType": "uint256",
          "name": "version",
          "type": "uint256"
        }
      ],
      "name": "Initialized",
      "type": "event"
    },
    {
      "anonymous": false,
      "inputs": [
        {
          "indexed": true,
          "internalType": "address",
          "name": "redeemer",
          "type": "address"
        },
        {
          "indexed": true,
          "internalType": "address",
          "name": "token",
          "type": "address"
        },
        {
          "indexed": true,
          "internalType": "uint256",
          "name": "value",
          "type": "uint256"
        }
      ],
      "name": "Redeemed",
      "type": "event"
    },
    {
      "anonymous": false,
      "inputs": [
        {
          "indexed": true,
          "internalType": "address[]",
          "name": "tokens",
          "type": "address[]"
        },
        {
          "indexed": true,
          "internalType": "bool[]",
          "name": "statuses",
          "type": "bool[]"
        }
      ],
      "name": "TokensUpdated",
      "type": "event"
    },
    {
      "anonymous": false,
      "inputs": [
        {
          "indexed": true,
          "internalType": "address",
          "name": "implementation",
          "type": "address"
        }
      ],
      "name": "Upgraded",
      "type": "event"
    },
    {
      "anonymous": false,
      "inputs": [
        {
          "indexed": true,
          "internalType": "address",
          "name": "token",
          "type": "address"
        },
        {
          "indexed": true,
          "internalType": "uint256",
          "name": "value",
          "type": "uint256"
        },
        {
          "indexed": false,
          "internalType": "uint256",
          "name": "start",
          "type": "uint256"
        },
        {
          "indexed": false,
          "internalType": "uint256",
          "name": "end",
          "type": "uint256"
        }
      ],
      "name": "VoucherCreated",
      "type": "event"
    },
    {
      "inputs": [],
      "name": "DOMAIN_SEPARATOR",
      "outputs": [
        {
          "internalType": "bytes32",
          "name": "",
          "type": "bytes32"
        }
      ],
      "stateMutability": "view",
      "type": "function"
    },
    {
      "inputs": [],
      "name": "VERSION",
      "outputs": [
        {
          "internalType": "bytes32",
          "name": "",
          "type": "bytes32"
        }
      ],
      "stateMutability": "view",
      "type": "function"
    },
    {
      "inputs": [
        {
          "internalType": "address",
          "name": "",
          "type": "address"
        }
      ],
      "name": "__commitments",
      "outputs": [
        {
          "internalType": "bytes32",
          "name": "",
          "type": "bytes32"
        }
      ],
      "stateMutability": "view",
      "type": "function"
    },
    {
      "inputs": [],
      "name": "authority",
      "outputs": [
        {
          "internalType": "contract IAuthority",
          "name": "authority_",
          "type": "address"
        }
      ],
      "stateMutability": "view",
      "type": "function"
    },
    {
      "inputs": [
        {
          "internalType": "bytes[]",
          "name": "data_",
          "type": "bytes[]"
        }
      ],
      "name": "batchProcess",
      "outputs": [],
      "stateMutability": "nonpayable",
      "type": "function"
    },
    {
      "inputs": [
        {
          "internalType": "bytes32",
          "name": "commitment_",
          "type": "bytes32"
        }
      ],
      "name": "commit",
      "outputs": [],
      "stateMutability": "nonpayable",
      "type": "function"
    },
    {
      "inputs": [
        {
          "internalType": "contract IReceiveGate",
          "name": "receiveGate_",
          "type": "address"
        },
        {
          "internalType": "contract IAuthority",
          "name": "authority_",
          "type": "address"
        },
        {
          "internalType": "contract ITreasury",
          "name": "treasury_",
          "type": "address"
        },
        {
          "internalType": "address[]",
          "name": "tokens_",
          "type": "address[]"
        },
        {
          "internalType": "bool[]",
          "name": "statuses_",
          "type": "bool[]"
        }
      ],
      "name": "initialize",
      "outputs": [],
      "stateMutability": "nonpayable",
      "type": "function"
    },
    {
      "inputs": [
        {
          "internalType": "address",
          "name": "sender_",
          "type": "address"
        }
      ],
      "name": "nonces",
      "outputs": [
        {
          "internalType": "uint256",
          "name": "",
          "type": "uint256"
        }
      ],
      "stateMutability": "view",
      "type": "function"
    },
    {
      "inputs": [],
      "name": "original",
      "outputs": [
        {
          "internalType": "address",
          "name": "",
          "type": "address"
        }
      ],
      "stateMutability": "view",
      "type": "function"
    },
    {
      "inputs": [],
      "name": "proxiableUUID",
      "outputs": [
        {
          "internalType": "bytes32",
          "name": "",
          "type": "bytes32"
        }
      ],
      "stateMutability": "view",
      "type": "function"
    },
    {
      "inputs": [],
      "name": "receiveGate",
      "outputs": [
        {
          "internalType": "contract IReceiveGate",
          "name": "",
          "type": "address"
        }
      ],
      "stateMutability": "view",
      "type": "function"
    },
    {
      "inputs": [
        {
          "internalType": "bytes32",
          "name": "root_",
          "type": "bytes32"
        },
        {
          "internalType": "bytes32",
          "name": "leaf_",
          "type": "bytes32"
        },
        {
          "internalType": "bytes32[]",
          "name": "proof_",
          "type": "bytes32[]"
        }
      ],
      "name": "redeem",
      "outputs": [],
      "stateMutability": "nonpayable",
      "type": "function"
    },
    {
      "inputs": [
        {
          "internalType": "bytes32",
          "name": "root_",
          "type": "bytes32"
        },
        {
          "internalType": "bytes32",
          "name": "leaf_",
          "type": "bytes32"
        },
        {
          "internalType": "bytes32[]",
          "name": "proof_",
          "type": "bytes32[]"
        }
      ],
      "name": "redeemWithReveal",
      "outputs": [],
      "stateMutability": "nonpayable",
      "type": "function"
    },
    {
      "inputs": [
        {
          "internalType": "bytes32",
          "name": "root_",
          "type": "bytes32"
        },
        {
          "internalType": "bytes32",
          "name": "leaf_",
          "type": "bytes32"
        },
        {
          "internalType": "uint256",
          "name": "deadline_",
          "type": "uint256"
        },
        {
          "internalType": "bytes32[]",
          "name": "proof_",
          "type": "bytes32[]"
        },
        {
          "internalType": "bytes",
          "name": "signature_",
          "type": "bytes"
        }
      ],
      "name": "redeemWithSignature",
      "outputs": [],
      "stateMutability": "nonpayable",
      "type": "function"
    },
    {
      "inputs": [
        {
          "internalType": "uint8",
          "name": "amountEach_",
          "type": "uint8"
        },
        {
          "internalType": "uint64",
          "name": "start_",
          "type": "uint64"
        },
        {
          "internalType": "uint64",
          "name": "end_",
          "type": "uint64"
        },
        {
          "internalType": "uint96",
          "name": "value_",
          "type": "uint96"
        },
        {
          "internalType": "bytes32",
          "name": "root_",
          "type": "bytes32"
        },
        {
          "internalType": "address",
          "name": "token_",
          "type": "address"
        },
        {
          "internalType": "uint256",
          "name": "data_",
          "type": "uint256"
        }
      ],
      "name": "requestVoucherCreation",
      "outputs": [],
      "stateMutability": "nonpayable",
      "type": "function"
    },
    {
      "inputs": [
        {
          "internalType": "uint256",
          "name": "mode_",
          "type": "uint256"
        }
      ],
      "name": "toggleVerificationMode",
      "outputs": [],
      "stateMutability": "nonpayable",
      "type": "function"
    },
    {
      "inputs": [
        {
          "internalType": "contract IAuthority",
          "name": "authority_",
          "type": "address"
        }
      ],
      "name": "updateAuthority",
      "outputs": [],
      "stateMutability": "nonpayable",
      "type": "function"
    },
    {
      "inputs": [
        {
          "internalType": "address[]",
          "name": "tokens_",
          "type": "address[]"
        },
        {
          "internalType": "bool[]",
          "name": "statuses_",
          "type": "bool[]"
        }
      ],
      "name": "updateTokens",
      "outputs": [],
      "stateMutability": "nonpayable",
      "type": "function"
    },
    {
      "inputs": [
        {
          "internalType": "address",
          "name": "newImplementation",
          "type": "address"
        }
      ],
      "name": "upgradeTo",
      "outputs": [],
      "stateMutability": "nonpayable",
      "type": "function"
    },
    {
      "inputs": [
        {
          "internalType": "address",
          "name": "newImplementation",
          "type": "address"
        },
        {
          "internalType": "bytes",
          "name": "data",
          "type": "bytes"
        }
      ],
      "name": "upgradeToAndCall",
      "outputs": [],
      "stateMutability": "payable",
      "type": "function"
    },
    {
      "inputs": [],
      "name": "vault",
      "outputs": [
        {
          "internalType": "address",
          "name": "",
          "type": "address"
        }
      ],
      "stateMutability": "view",
      "type": "function"
    },
    {
      "inputs": [],
      "name": "verificationModeToggler",
      "outputs": [
        {
          "internalType": "uint256",
          "name": "",
          "type": "uint256"
        }
      ],
      "stateMutability": "view",
      "type": "function"
    },
    {
      "stateMutability": "payable",
      "type": "receive"
    }
  ],
  "bytecode": {
    "object": "0x60a06040523060805234801561001457600080fd5b50608051612c7c61004c600039600081816105b40152818161060e015281816108120152818161086c015261095f0152612c7c6000f3fe6080604052600436106101795760003560e01c8063925442de116100cb578063cc67f5841161007f578063f14fcbc811610059578063f14fcbc8146104da578063fbfa77cf146104fa578063ffa1ad741461052857600080fd5b8063cc67f5841461047a578063d2332eb51461049a578063d6f8fee1146104ba57600080fd5b8063b6d24d5e116100b0578063b6d24d5e14610417578063bf7e214f14610437578063c60074d31461044c57600080fd5b8063925442de146103d7578063a446280d146103f757600080fd5b806346c715fa1161012d5780637d31f9d7116101075780637d31f9d7146103695780637ecebe00146103895780637f52aca8146103a957600080fd5b806346c715fa146102ee5780634f1ef2861461034157806352d1902d1461035457600080fd5b80633659cfe61161015e5780633659cfe6146102975780633c716e08146102b75780633fe3e500146102d757600080fd5b8063135504df1461024d5780633644e5151461026f57600080fd5b36610248576101945460405160009173ffffffffffffffffffffffffffffffffffffffff169034908381818185875af1925050503d80600081146101d9576040519150601f19603f3d011682016040523d82523d6000602084013e6101de565b606091505b5050905080610219576040517f68ef1d7400000000000000000000000000000000000000000000000000000000815260040160405180910390fd5b604051349033907f6f1deddfc28100c291fae8f1064e4a91e844f0841993bb8fba9a913c3b801d8090600090a3005b600080fd5b34801561025957600080fd5b5061026d6102683660046125a5565b61055c565b005b34801561027b57600080fd5b5061028461058e565b6040519081526020015b60405180910390f35b3480156102a357600080fd5b5061026d6102b23660046125e0565b61059d565b3480156102c357600080fd5b5061026d6102d23660046125e0565b6106f6565b3480156102e357600080fd5b506102846101c85481565b3480156102fa57600080fd5b506101c65461031c9073ffffffffffffffffffffffffffffffffffffffff1681565b60405173ffffffffffffffffffffffffffffffffffffffff909116815260200161028e565b61026d61034f36600461262c565b6107fb565b34801561036057600080fd5b50610284610945565b34801561037557600080fd5b5061026d61038436600461275a565b6109db565b34801561039557600080fd5b506102846103a43660046125e0565b610a9f565b3480156103b557600080fd5b506102846103c43660046125e0565b6101cc6020526000908152604090205481565b3480156103e357600080fd5b5061026d6103f23660046127ad565b610ab5565b34801561040357600080fd5b5061026d61041236600461280c565b610ac4565b34801561042357600080fd5b5061026d61043236600461275a565b610e27565b34801561044357600080fd5b5060985461031c565b34801561045857600080fd5b506101c75461031c9073ffffffffffffffffffffffffffffffffffffffff1681565b34801561048657600080fd5b5061026d6104953660046128a3565b610f2c565b3480156104a657600080fd5b5061026d6104b536600461295d565b6110cb565b3480156104c657600080fd5b5061026d6104d53660046129bd565b611161565b3480156104e657600080fd5b5061026d6104f53660046125a5565b611303565b34801561050657600080fd5b506101945461031c9073ffffffffffffffffffffffffffffffffffffffff1681565b34801561053457600080fd5b506102847f09a19cf501f4eabee6139a372ef40601f75e9ae59d97278020c14c8fa1d853a881565b7f97667070c54ef182b0f5858b034beac1b6f3089aa2d3188bb1e8929f4fa9b9296105878133611389565b506101c855565b600061059861145b565b905090565b73ffffffffffffffffffffffffffffffffffffffff7f000000000000000000000000000000000000000000000000000000000000000016300361060c576040517ff96c3be000000000000000000000000000000000000000000000000000000000815260040160405180910390fd5b7f000000000000000000000000000000000000000000000000000000000000000073ffffffffffffffffffffffffffffffffffffffff166106817f360894a13ba1a3210667c828492db98dca3e2076cc3735a920a3ca505d382bbc5473ffffffffffffffffffffffffffffffffffffffff1690565b73ffffffffffffffffffffffffffffffffffffffff16146106ce576040517f7860576200000000000000000000000000000000000000000000000000000000815260040160405180910390fd5b6106d7816114d6565b604080516000808252602082019092526106f391839190611501565b50565b7f97667070c54ef182b0f5858b034beac1b6f3089aa2d3188bb1e8929f4fa9b9296107218133611389565b600061072c60985490565b90508273ffffffffffffffffffffffffffffffffffffffff168173ffffffffffffffffffffffffffffffffffffffff1603610793576040517f4ef9984200000000000000000000000000000000000000000000000000000000815260040160405180910390fd5b61079c83609855565b8273ffffffffffffffffffffffffffffffffffffffff168173ffffffffffffffffffffffffffffffffffffffff167fa3396fd7f6e0a21b50e5089d2da70d5ac0a3bbbd1f617a93f134b7638998019860405160405180910390a3505050565b73ffffffffffffffffffffffffffffffffffffffff7f000000000000000000000000000000000000000000000000000000000000000016300361086a576040517ff96c3be000000000000000000000000000000000000000000000000000000000815260040160405180910390fd5b7f000000000000000000000000000000000000000000000000000000000000000073ffffffffffffffffffffffffffffffffffffffff166108df7f360894a13ba1a3210667c828492db98dca3e2076cc3735a920a3ca505d382bbc5473ffffffffffffffffffffffffffffffffffffffff1690565b73ffffffffffffffffffffffffffffffffffffffff161461092c576040517f7860576200000000000000000000000000000000000000000000000000000000815260040160405180910390fd5b610935826114d6565b61094182826001611501565b5050565b60003073ffffffffffffffffffffffffffffffffffffffff7f000000000000000000000000000000000000000000000000000000000000000016146109b6576040517ff2e149be00000000000000000000000000000000000000000000000000000000815260040160405180910390fd5b507f360894a13ba1a3210667c828492db98dca3e2076cc3735a920a3ca505d382bbc90565b6109e3611654565b6101c854600114610a20576040517f429879bd00000000000000000000000000000000000000000000000000000000815260040160405180910390fd5b33610a2a816116fe565b606081901b938418600881901c60009081526101c960205260409020549590941894600160ff86161b1615610a8b576040517f880fdb1900000000000000000000000000000000000000000000000000000000815260040160405180910390fd5b610a988186868686611710565b5050505050565b600081815260fe60205260408120545b92915050565b610abf8282611976565b505050565b7f77d72916e966418e6dc58a19999ae9934bef3f749f1547cde0a86e809f19c89b610aef8133611389565b8567ffffffffffffffff168767ffffffffffffffff161115610b3d576040517fc155a73600000000000000000000000000000000000000000000000000000000815260040160405180910390fd5b72ffffffffffffffffffffffffffffffffffffff600884901c1660009081526101ca6020526040902054600160ff85161b16610ba5576040517f6750e16200000000000000000000000000000000000000000000000000000000815260040160405180910390fd5b73ffffffffffffffffffffffffffffffffffffffff83161580610c035750610c0373ffffffffffffffffffffffffffffffffffffffff84167f36372b0700000000000000000000000000000000000000000000000000000000611b02565b15610c5c57610c1560ff891686612a65565b6bffffffffffffffffffffffff16821015610c5c576040517fc155a73600000000000000000000000000000000000000000000000000000000815260040160405180910390fd5b60405180608001604052808473ffffffffffffffffffffffffffffffffffffffff168152602001866bffffffffffffffffffffffff1681526020018867ffffffffffffffff1681526020018767ffffffffffffffff168152506101cb600086815260200190815260200160002060008201518160000160006101000a81548173ffffffffffffffffffffffffffffffffffffffff021916908373ffffffffffffffffffffffffffffffffffffffff16021790555060208201518160000160146101000a8154816bffffffffffffffffffffffff02191690836bffffffffffffffffffffffff16021790555060408201518160010160006101000a81548167ffffffffffffffff021916908367ffffffffffffffff16021790555060608201518160010160086101000a81548167ffffffffffffffff021916908367ffffffffffffffff160217905550905050846bffffffffffffffffffffffff168373ffffffffffffffffffffffffffffffffffffffff167fca03ac2ecbe973920304b678e051730927e587091f00a529bada7043b85daf0e8989604051610e1592919067ffffffffffffffff92831681529116602082015260400190565b60405180910390a35050505050505050565b610e2f611654565b6101c854600314610e6c576040517f722c129700000000000000000000000000000000000000000000000000000000815260040160405180910390fd5b33610e76816116fe565b73ffffffffffffffffffffffffffffffffffffffff811660009081526101cc602090815260409182902054825191820187905291016040516020818303038152906040528051906020012014610ef8576040517f8fdd75c900000000000000000000000000000000000000000000000000000000815260040160405180910390fd5b73ffffffffffffffffffffffffffffffffffffffff811660009081526101cc6020526040812055610a988186868686611710565b610f34611654565b6101c854600214610f71576040517f9dde33b400000000000000000000000000000000000000000000000000000000815260040160405180910390fd5b33610f7b816116fe565b85421115610fb5576040517fabda266d00000000000000000000000000000000000000000000000000000000815260040160405180910390fd5b61107e7fe2f4eaae4a9751e85a3e4a7b9587827a877f29914755229b07a7b2da98285f706110797f092629730580794cbe77cfc1bb7dd7c823c7869c6db0078ca3d25f2368adc254848b61101d82600090815260fe6020526040902080546001810190915590565b60408051602081019590955273ffffffffffffffffffffffffffffffffffffffff909316928401929092526060830152608082015260a081018a905260c001604051602081830303815290604052805190602001208686611b25565b611b44565b6110b4576040517f96dff51b00000000000000000000000000000000000000000000000000000000815260040160405180910390fd5b6110c18189898888611710565b5050505050505050565b7f97667070c54ef182b0f5858b034beac1b6f3089aa2d3188bb1e8929f4fa9b9296110f68133611389565b61110285858585611be8565b8282604051611112929190612aca565b6040518091039020858560405161112a929190612b05565b604051908190038120907f7bf8a9484498e5c8ecd7e6b776adac19d41e8c468f331bef910e2c425db2da0590600090a35050505050565b600154600054600290911480159190829061117a575080155b8061118f575080600114801561118f5750303b155b6111c5576040517f2e8adaaa00000000000000000000000000000000000000000000000000000000815260040160405180910390fd5b600160005581156111d65760026001555b6101c780547fffffffffffffffffffffffff00000000000000000000000000000000000000001673ffffffffffffffffffffffffffffffffffffffff8b1617905560016101c85561122986868686611be8565b611231611d06565b61123c886000611d6f565b6112b060405180604001604052600e8152806020017f566f756368657243726561746f720000000000000000000000000000000000008152506040518060400160405280600181526020017f3100000000000000000000000000000000000000000000000000000000000000815250611e34565b6112b987611e7a565b81156112f85760018080556040519081527fbe9b076dc5b65990cca9dd9d7366682482e7817a6f6bc7f4faf4dc32af497f329060200160405180910390a15b505050505050505050565b61130b611654565b6101c854600314611348576040517f722c129700000000000000000000000000000000000000000000000000000000815260040160405180910390fd5b3360008181526101cc602052604080822084905551839183917f37ba923fffb60278a016dc06a84ba47b0b992e77172c0b44f788606805ae10e59190a35050565b6098546040517f91d148540000000000000000000000000000000000000000000000000000000081526004810184905273ffffffffffffffffffffffffffffffffffffffff838116602483015291909116906391d1485490604401602060405180830381865afa158015611401573d6000803e3d6000fd5b505050506040513d601f19601f820116820180604052508101906114259190612b49565b610941576040517f5d53684100000000000000000000000000000000000000000000000000000000815260040160405180910390fd5b60006105987f8b73c3c69bb8fe3d512ecc4cf759cc79239f7b179b0ffacaa9a75d522b39400f61148a60ca5490565b60cb546040805160208101859052908101839052606081018290524660808201523060a082015260009060c0016040516020818303038152906040528051906020012090509392505050565b7f189ab7a9244df0848122154315af71fe140f3db0fe014031783b0946b8c9d2e36109418133611389565b7f4910fdfa16fed3260ed0e7147f7cc6da11a60208b5b9406d12a635614ffd91435460ff161561153457610abf83611efe565b8273ffffffffffffffffffffffffffffffffffffffff166352d1902d6040518163ffffffff1660e01b8152600401602060405180830381865afa9250505080156115b9575060408051601f3d9081017fffffffffffffffffffffffffffffffffffffffffffffffffffffffffffffffe01682019092526115b691810190612b66565b60015b6115ef576040517f38622d4300000000000000000000000000000000000000000000000000000000815260040160405180910390fd5b7f360894a13ba1a3210667c828492db98dca3e2076cc3735a920a3ca505d382bbc8114611648576040517f14edfa8000000000000000000000000000000000000000000000000000000000815260040160405180910390fd5b50610abf838383611fb2565b60985473ffffffffffffffffffffffffffffffffffffffff16635c975abb6040518163ffffffff1660e01b8152600401602060405180830381865afa1580156116a1573d6000803e3d6000fd5b505050506040513d601f19601f820116820180604052508101906116c59190612b49565b156116fc576040517f94a75b5300000000000000000000000000000000000000000000000000000000815260040160405180910390fd5b565b61170781611fdd565b6106f3816120a9565b61171c828286866120b3565b15611753576040517fd136758300000000000000000000000000000000000000000000000000000000815260040160405180910390fd5b60008481526101cb60209081526040918290208251608081018452815473ffffffffffffffffffffffffffffffffffffffff811682527401000000000000000000000000000000000000000090046bffffffffffffffffffffffff16928101929092526001015467ffffffffffffffff80821693830193909352680100000000000000009004909116606082018190524211806117fd5750806040015167ffffffffffffffff1642105b15611834576040517f3801c95d00000000000000000000000000000000000000000000000000000000815260040160405180910390fd5b600884901c60009081526101c9602052604090208054600160ff87161b1790556101c754815160208301516040517fc3b35a7e00000000000000000000000000000000000000000000000000000000815273ffffffffffffffffffffffffffffffffffffffff928316600482015289831660248201526bffffffffffffffffffffffff909116604482015291169063c3b35a7e90606401600060405180830381600087803b1580156118e557600080fd5b505af11580156118f9573d6000803e3d6000fd5b5050505080602001516bffffffffffffffffffffffff16816000015173ffffffffffffffffffffffffffffffffffffffff168773ffffffffffffffffffffffffffffffffffffffff167f27d4634c833b7622a0acddbf7f746183625f105945e95c723ad1d5a9f2a0b6fc60405160405180910390a4505050505050565b6101c65460609073ffffffffffffffffffffffffffffffffffffffff1630146119cb576040517fd67486d700000000000000000000000000000000000000000000000000000000815260040160405180910390fd5b818067ffffffffffffffff8111156119e5576119e56125fd565b604051908082528060200260200182016040528015611a1857816020015b6060815260200190600190039081611a035790505b5091506000805b82811015611af95730868683818110611a3a57611a3a612b7f565b9050602002810190611a4c9190612bae565b604051611a5a929190612c13565b600060405180830381855af49150503d8060008114611a95576040519150601f19603f3d011682016040523d82523d6000602084013e611a9a565b606091505b50858381518110611aad57611aad612b7f565b6020908102919091010152915081611af1576040517f60450c8700000000000000000000000000000000000000000000000000000000815260040160405180910390fd5b600101611a1f565b50505092915050565b6000611b0d836120ed565b8015611b1e5750611b1e8383612151565b9392505050565b6000611b3c8383611b3587612220565b9190612268565b949350505050565b6000611b4f60985490565b6040517f91d148540000000000000000000000000000000000000000000000000000000081526004810185905273ffffffffffffffffffffffffffffffffffffffff848116602483015291909116906391d1485490604401602060405180830381865afa158015611bc4573d6000803e3d6000fd5b505050506040513d601f19601f82011682018060405250810190611b1e9190612b49565b60008484808060200260200160405190810160405280939291908181526020018383602002808284376000920191909152505082519293505050828114611c5b576040517f52505e0c00000000000000000000000000000000000000000000000000000000815260040160405180910390fd5b60008167ffffffffffffffff811115611c7657611c766125fd565b604051908082528060200260200182016040528015611c9f578160200160208202803683370190505b50905082905060005b828110156110c157611cfe828281518110611cc557611cc5612b7f565b6020026020010151878784818110611cdf57611cdf612b7f565b9050602002016020810190611cf49190612c23565b6101ca9190612323565b600101611ca8565b600154600214611d42576040517f8b4188b300000000000000000000000000000000000000000000000000000000815260040160405180910390fd5b6101c680547fffffffffffffffffffffffff00000000000000000000000000000000000000001630179055565b600154600214611dab576040517f8b4188b300000000000000000000000000000000000000000000000000000000815260040160405180910390fd5b6040517f841fb5030000000000000000000000000000000000000000000000000000000081526004810182905273ffffffffffffffffffffffffffffffffffffffff83169063841fb50390602401600060405180830381600087803b158015611e1357600080fd5b505af1158015611e27573d6000803e3d6000fd5b5050505061094182609855565b600154600214611e70576040517f8b4188b300000000000000000000000000000000000000000000000000000000815260040160405180910390fd5b6109418282612372565b600154600214611eb6576040517f8b4188b300000000000000000000000000000000000000000000000000000000815260040160405180910390fd5b61019480547fffffffffffffffffffffffff00000000000000000000000000000000000000001673ffffffffffffffffffffffffffffffffffffffff92909216919091179055565b73ffffffffffffffffffffffffffffffffffffffff81163b611f4c576040517f2390ec9c00000000000000000000000000000000000000000000000000000000815260040160405180910390fd5b7f360894a13ba1a3210667c828492db98dca3e2076cc3735a920a3ca505d382bbc80547fffffffffffffffffffffffff00000000000000000000000000000000000000001673ffffffffffffffffffffffffffffffffffffffff92909216919091179055565b611fbb836123c3565b600082511180611fc85750805b15610abf57611fd78383612410565b50505050565b6098546040517ffe575a8700000000000000000000000000000000000000000000000000000000815273ffffffffffffffffffffffffffffffffffffffff8381166004830152919091169063fe575a8790602401602060405180830381865afa15801561204e573d6000803e3d6000fd5b505050506040513d601f19601f820116820180604052508101906120729190612b49565b156106f3576040517f6b50958f00000000000000000000000000000000000000000000000000000000815260040160405180910390fd5b6106f381326124e0565b600083156120e5578360051b8501855b803580851160051b948552602094851852604060002093018181106120c35750505b501492915050565b6000612119827f01ffc9a700000000000000000000000000000000000000000000000000000000612151565b8015610aaf575061214a827fffffffff00000000000000000000000000000000000000000000000000000000612151565b1592915050565b604080517fffffffff000000000000000000000000000000000000000000000000000000008316602480830191909152825180830390910181526044909101909152602080820180517bffffffffffffffffffffffffffffffffffffffffffffffffffffffff167f01ffc9a700000000000000000000000000000000000000000000000000000000178152825160009392849283928392918391908a617530fa92503d91506000519050828015612209575060208210155b80156122155750600081115b979650505050505050565b6000610aaf61222d61145b565b836040517f19010000000000000000000000000000000000000000000000000000000000008152600281019290925260228201526042902090565b60006040516020840135836040811461228857604181146122bc576122c8565b601b8260ff1c016020527f7fffffffffffffffffffffffffffffffffffffffffffffffffffffffffffffff821691506122c8565b604086013560001a6020525b507f7fffffffffffffffffffffffffffffff5d576e7357a4501ddfe92f46681b20a08111612318578560005260208560403780606052602060406080600060015afa5060006060523d6060035192505b506040529392505050565b801561234d57600882901c60009081526020849052604090208054600160ff85161b179055505050565b600882901c60009081526020849052604090208054600160ff85161b19169055505050565b6001546002146123ae576040517f8b4188b300000000000000000000000000000000000000000000000000000000815260040160405180910390fd5b815160209283012060ca55805191012060cb55565b6123cc81611efe565b60405173ffffffffffffffffffffffffffffffffffffffff8216907fbc7cd75a20ee27fd9adebab32041f755214dbc6bffa90cc0225b39da2e5c2d3b90600090a250565b606073ffffffffffffffffffffffffffffffffffffffff83163b612460576040517f233b521600000000000000000000000000000000000000000000000000000000815260040160405180910390fd5b6000808473ffffffffffffffffffffffffffffffffffffffff16846040516124889190612c40565b600060405180830381855af49150503d80600081146124c3576040519150601f19603f3d011682016040523d82523d6000602084013e6124c8565b606091505b50915091506124d78282612555565b95945050505050565b73ffffffffffffffffffffffffffffffffffffffff80831690821614158061251e575073ffffffffffffffffffffffffffffffffffffffff82163b15155b15610941576040517f37678ac400000000000000000000000000000000000000000000000000000000815260040160405180910390fd5b60608215612564575080610aaf565b81511561257357815182602001fd5b6040517f59636df400000000000000000000000000000000000000000000000000000000815260040160405180910390fd5b6000602082840312156125b757600080fd5b5035919050565b73ffffffffffffffffffffffffffffffffffffffff811681146106f357600080fd5b6000602082840312156125f257600080fd5b8135611b1e816125be565b7f4e487b7100000000000000000000000000000000000000000000000000000000600052604160045260246000fd5b6000806040838503121561263f57600080fd5b823561264a816125be565b9150602083013567ffffffffffffffff8082111561266757600080fd5b818501915085601f83011261267b57600080fd5b81358181111561268d5761268d6125fd565b604051601f82017fffffffffffffffffffffffffffffffffffffffffffffffffffffffffffffffe0908116603f011681019083821181831017156126d3576126d36125fd565b816040528281528860208487010111156126ec57600080fd5b8260208601602083013760006020848301015280955050505050509250929050565b60008083601f84011261272057600080fd5b50813567ffffffffffffffff81111561273857600080fd5b6020830191508360208260051b850101111561275357600080fd5b9250929050565b6000806000806060858703121561277057600080fd5b8435935060208501359250604085013567ffffffffffffffff81111561279557600080fd5b6127a18782880161270e565b95989497509550505050565b600080602083850312156127c057600080fd5b823567ffffffffffffffff8111156127d757600080fd5b6127e38582860161270e565b90969095509350505050565b803567ffffffffffffffff8116811461280757600080fd5b919050565b600080600080600080600060e0888a03121561282757600080fd5b873560ff8116811461283857600080fd5b9650612846602089016127ef565b9550612854604089016127ef565b945060608801356bffffffffffffffffffffffff8116811461287557600080fd5b93506080880135925060a088013561288c816125be565b8092505060c0880135905092959891949750929550565b600080600080600080600060a0888a0312156128be57600080fd5b873596506020880135955060408801359450606088013567ffffffffffffffff808211156128eb57600080fd5b6128f78b838c0161270e565b909650945060808a013591508082111561291057600080fd5b818a0191508a601f83011261292457600080fd5b81358181111561293357600080fd5b8b602082850101111561294557600080fd5b60208301945080935050505092959891949750929550565b6000806000806040858703121561297357600080fd5b843567ffffffffffffffff8082111561298b57600080fd5b6129978883890161270e565b909650945060208701359150808211156129b057600080fd5b506127a18782880161270e565b600080600080600080600060a0888a0312156129d857600080fd5b87356129e3816125be565b965060208801356129f3816125be565b95506040880135612a03816125be565b9450606088013567ffffffffffffffff80821115612a2057600080fd5b612a2c8b838c0161270e565b909650945060808a0135915080821115612a4557600080fd5b50612a528a828b0161270e565b989b979a50959850939692959293505050565b6bffffffffffffffffffffffff818116838216028082169190828114612ab4577f4e487b7100000000000000000000000000000000000000000000000000000000600052601160045260246000fd5b505092915050565b80151581146106f357600080fd5b60008184825b85811015612afa578135612ae381612abc565b151583526020928301929190910190600101612ad0565b509095945050505050565b60008184825b85811015612afa578135612b1e816125be565b73ffffffffffffffffffffffffffffffffffffffff1683526020928301929190910190600101612b0b565b600060208284031215612b5b57600080fd5b8151611b1e81612abc565b600060208284031215612b7857600080fd5b5051919050565b7f4e487b7100000000000000000000000000000000000000000000000000000000600052603260045260246000fd5b60008083357fffffffffffffffffffffffffffffffffffffffffffffffffffffffffffffffe1843603018112612be357600080fd5b83018035915067ffffffffffffffff821115612bfe57600080fd5b60200191503681900382131561275357600080fd5b8183823760009101908152919050565b600060208284031215612c3557600080fd5b8135611b1e81612abc565b6000825160005b81811015612c615760208186018101518583015201612c47565b50600092019182525091905056fea164736f6c6343000811000a",
    "linkReferences": {}
  },
  "methodIdentifiers": {
    "DOMAIN_SEPARATOR()": "3644e515",
    "VERSION()": "ffa1ad74",
    "__commitments(address)": "7f52aca8",
    "authority()": "bf7e214f",
    "batchProcess(bytes[])": "925442de",
    "commit(bytes32)": "f14fcbc8",
    "initialize(address,address,address,address[],bool[])": "d6f8fee1",
    "nonces(address)": "7ecebe00",
    "original()": "46c715fa",
    "proxiableUUID()": "52d1902d",
    "receiveGate()": "c60074d3",
    "redeem(bytes32,bytes32,bytes32[])": "7d31f9d7",
    "redeemWithReveal(bytes32,bytes32,bytes32[])": "b6d24d5e",
    "redeemWithSignature(bytes32,bytes32,uint256,bytes32[],bytes)": "cc67f584",
    "requestVoucherCreation(uint8,uint64,uint64,uint96,bytes32,address,uint256)": "a446280d",
    "toggleVerificationMode(uint256)": "135504df",
    "updateAuthority(address)": "3c716e08",
    "updateTokens(address[],bool[])": "d2332eb5",
    "upgradeTo(address)": "3659cfe6",
    "upgradeToAndCall(address,bytes)": "4f1ef286",
    "vault()": "fbfa77cf",
    "verificationModeToggler()": "3fe3e500"
  },
  "id": 3
}